{
  "_format": "hh-sol-artifact-1",
  "contractName": "CreateAContract",
  "sourceName": "contracts/Test.sol",
  "abi": [
    {
      "inputs": [
        {
          "internalType": "uint256",
          "name": "_initial",
          "type": "uint256"
        }
      ],
      "name": "create",
      "outputs": [
        {
          "internalType": "address",
          "name": "",
          "type": "address"
        }
      ],
      "stateMutability": "nonpayable",
      "type": "function"
    }
  ],
  "bytecode": "0x608060405234801561001057600080fd5b5061033b806100206000396000f3fe608060405234801561001057600080fd5b506004361061002b5760003560e01c8063780900dc14610030575b600080fd5b61004a600480360381019061004591906100ea565b610060565b6040516100579190610158565b60405180910390f35b60008082604051610070906100a2565b61007a9190610182565b604051809103906000f080158015610096573d6000803e3d6000fd5b50905080915050919050565b6101688061019e83390190565b600080fd5b6000819050919050565b6100c7816100b4565b81146100d257600080fd5b50565b6000813590506100e4816100be565b92915050565b600060208284031215610100576100ff6100af565b5b600061010e848285016100d5565b91505092915050565b600073ffffffffffffffffffffffffffffffffffffffff82169050919050565b600061014282610117565b9050919050565b61015281610137565b82525050565b600060208201905061016d6000830184610149565b92915050565b61017c816100b4565b82525050565b60006020820190506101976000830184610173565b9291505056fe608060405234801561001057600080fd5b506040516101683803806101688339818101604052810190610032919061007a565b80600081905550506100a7565b600080fd5b6000819050919050565b61005781610044565b811461006257600080fd5b50565b6000815190506100748161004e565b92915050565b6000602082840312156100905761008f61003f565b5b600061009e84828501610065565b91505092915050565b60b3806100b56000396000f3fe6080604052348015600f57600080fd5b506004361060285760003560e01c80633fa4f24514602d575b600080fd5b60336047565b604051603e91906064565b60405180910390f35b60005481565b6000819050919050565b605e81604d565b82525050565b6000602082019050607760008301846057565b9291505056fea2646970667358221220e24e1e506d15f899712baeff866ce2b880c3e23cae4de3602845a45282e7479f64736f6c63430008090033a26469706673582212205dbfe52e73dff82d8fdfd228a88159f5d2ba469c2e51f0c405b5a1857edaf43364736f6c63430008090033",
  "linkReferences": {},
  "deployedLinkReferences": {}
}