{
  "_format": "hh-sol-artifact-1",
  "contractName": "CreateDAOToken",
  "sourceName": "contracts/DAOFactory.sol",
  "abi": [
    {
      "inputs": [
        {
          "internalType": "string",
          "name": "_name",
          "type": "string"
        },
        {
          "internalType": "string",
          "name": "_symbol",
          "type": "string"
        },
        {
          "internalType": "uint256",
          "name": "_maxSupply",
          "type": "uint256"
        }
      ],
      "name": "createDAOToken",
      "outputs": [
        {
          "internalType": "address",
          "name": "",
          "type": "address"
        }
      ],
      "stateMutability": "nonpayable",
      "type": "function"
    }
  ],
  "bytecode": "0x608060405234801561001057600080fd5b50615042806100206000396000f3fe60806040523480156200001157600080fd5b50600436106200002e5760003560e01c8063e328bae41462000033575b600080fd5b6200005160048036038101906200004b919062000275565b62000069565b60405162000060919062000354565b60405180910390f35b6000808484846040516200007d90620000b6565b6200008b9392919062000415565b604051809103906000f080158015620000a8573d6000803e3d6000fd5b509050809150509392505050565b614bac806200046183390190565b6000604051905090565b600080fd5b600080fd5b600080fd5b600080fd5b6000601f19601f8301169050919050565b7f4e487b7100000000000000000000000000000000000000000000000000000000600052604160045260246000fd5b6200012d82620000e2565b810181811067ffffffffffffffff821117156200014f576200014e620000f3565b5b80604052505050565b600062000164620000c4565b905062000172828262000122565b919050565b600067ffffffffffffffff821115620001955762000194620000f3565b5b620001a082620000e2565b9050602081019050919050565b82818337600083830152505050565b6000620001d3620001cd8462000177565b62000158565b905082815260208101848484011115620001f257620001f1620000dd565b5b620001ff848285620001ad565b509392505050565b600082601f8301126200021f576200021e620000d8565b5b813562000231848260208601620001bc565b91505092915050565b6000819050919050565b6200024f816200023a565b81146200025b57600080fd5b50565b6000813590506200026f8162000244565b92915050565b600080600060608486031215620002915762000290620000ce565b5b600084013567ffffffffffffffff811115620002b257620002b1620000d3565b5b620002c08682870162000207565b935050602084013567ffffffffffffffff811115620002e457620002e3620000d3565b5b620002f28682870162000207565b925050604062000305868287016200025e565b9150509250925092565b600073ffffffffffffffffffffffffffffffffffffffff82169050919050565b60006200033c826200030f565b9050919050565b6200034e816200032f565b82525050565b60006020820190506200036b600083018462000343565b92915050565b600081519050919050565b600082825260208201905092915050565b60005b83811015620003ad57808201518184015260208101905062000390565b83811115620003bd576000848401525b50505050565b6000620003d08262000371565b620003dc81856200037c565b9350620003ee8185602086016200038d565b620003f981620000e2565b840191505092915050565b6200040f816200023a565b82525050565b60006060820190508181036000830152620004318186620003c3565b90508181036020830152620004478185620003c3565b905062000458604083018462000404565b94935050505056fe6101606040527f6e71edae12b1b97f4d1f60370fef10105fa2faae0126114a169c64845d6126c9610140908152503480156200003a57600080fd5b5060405162004bac38038062004bac833981810160405281019062000060919062000d88565b82806040518060400160405280600181526020017f310000000000000000000000000000000000000000000000000000000000000081525085858160039080519060200190620000b292919062000b00565b508060049080519060200190620000cb92919062000b00565b50505060008280519060200120905060008280519060200120905060007f8b73c3c69bb8fe3d512ecc4cf759cc79239f7b179b0ffacaa9a75d522b39400f90508260e081815250508161010081815250504660a08181525050620001378184846200019c60201b60201c565b608081815250503073ffffffffffffffffffffffffffffffffffffffff1660c08173ffffffffffffffffffffffffffffffffffffffff1681525050806101208181525050505050505050620001933382620001d860201b60201c565b505050620012e0565b60008383834630604051602001620001b995949392919062000e93565b6040516020818303038152906040528051906020012090509392505050565b620001ef8282620001f360201b620010231760201c565b5050565b6200020a8282620002b160201b620010b01760201c565b6200021a6200042a60201b60201c565b7bffffffffffffffffffffffffffffffffffffffffffffffffffffffff16620002486200044e60201b60201c565b11156200028c576040517f08c379a0000000000000000000000000000000000000000000000000000000008152600401620002839062000f77565b60405180910390fd5b620002ab60086200045860201b6200121017836200047060201b60201c565b50505050565b600073ffffffffffffffffffffffffffffffffffffffff168273ffffffffffffffffffffffffffffffffffffffff16141562000324576040517f08c379a00000000000000000000000000000000000000000000000000000000081526004016200031b9062000fe9565b60405180910390fd5b62000338600083836200072160201b60201c565b80600260008282546200034c91906200103a565b92505081905550806000808473ffffffffffffffffffffffffffffffffffffffff1673ffffffffffffffffffffffffffffffffffffffff1681526020019081526020016000206000828254620003a391906200103a565b925050819055508173ffffffffffffffffffffffffffffffffffffffff16600073ffffffffffffffffffffffffffffffffffffffff167fddf252ad1be2c89b69c2b068fc378daa952ba7f163c4a11628f55a4df523b3ef836040516200040a919062001097565b60405180910390a362000426600083836200072660201b60201c565b5050565b60007bffffffffffffffffffffffffffffffffffffffffffffffffffffffff905090565b6000600254905090565b600081836200046891906200103a565b905092915050565b60008060008580549050905060008114620004e55785600182620004959190620010b4565b81548110620004a957620004a8620010ef565b5b9060005260206000200160000160049054906101000a90047bffffffffffffffffffffffffffffffffffffffffffffffffffffffff16620004e8565b60005b7bffffffffffffffffffffffffffffffffffffffffffffffffffffffff1692506200051483858760201c565b91506000811180156200056d57504386600183620005339190620010b4565b81548110620005475762000546620010ef565b5b9060005260206000200160000160009054906101000a900463ffffffff1663ffffffff16145b156200060e5762000589826200074360201b620012261760201c565b86600183620005999190620010b4565b81548110620005ad57620005ac620010ef565b5b9060005260206000200160000160046101000a8154817bffffffffffffffffffffffffffffffffffffffffffffffffffffffff02191690837bffffffffffffffffffffffffffffffffffffffffffffffffffffffff16021790555062000718565b8560405180604001604052806200063043620007b160201b620012911760201c565b63ffffffff16815260200162000651856200074360201b620012261760201c565b7bffffffffffffffffffffffffffffffffffffffffffffffffffffffff168152509080600181540180825580915050600190039060005260206000200160009091909190915060008201518160000160006101000a81548163ffffffff021916908363ffffffff16021790555060208201518160000160046101000a8154817bffffffffffffffffffffffffffffffffffffffffffffffffffffffff02191690837bffffffffffffffffffffffffffffffffffffffffffffffffffffffff16021790555050505b50935093915050565b505050565b6200073e8383836200080760201b620012e41760201c565b505050565b60007bffffffffffffffffffffffffffffffffffffffffffffffffffffffff8016821115620007a9576040517f08c379a0000000000000000000000000000000000000000000000000000000008152600401620007a09062001194565b60405180910390fd5b819050919050565b600063ffffffff8016821115620007ff576040517f08c379a0000000000000000000000000000000000000000000000000000000008152600401620007f6906200122c565b60405180910390fd5b819050919050565b6200081f8383836200085760201b6200130f1760201c565b6200085262000834846200085c60201b60201c565b62000845846200085c60201b60201c565b83620008c560201b60201c565b505050565b505050565b6000600660008373ffffffffffffffffffffffffffffffffffffffff1673ffffffffffffffffffffffffffffffffffffffff16815260200190815260200160002060009054906101000a900473ffffffffffffffffffffffffffffffffffffffff169050919050565b8173ffffffffffffffffffffffffffffffffffffffff168373ffffffffffffffffffffffffffffffffffffffff1614158015620009025750600081115b1562000ae357600073ffffffffffffffffffffffffffffffffffffffff168373ffffffffffffffffffffffffffffffffffffffff1614620009f5576000806200099c600760008773ffffffffffffffffffffffffffffffffffffffff1673ffffffffffffffffffffffffffffffffffffffff16815260200190815260200160002062000ae860201b6200131417856200047060201b60201c565b915091508473ffffffffffffffffffffffffffffffffffffffff167fdec2bacdd2f05b59de34da9b523dff8be42e5e38e818c82fdb0bae774387a7248383604051620009ea9291906200124e565b60405180910390a250505b600073ffffffffffffffffffffffffffffffffffffffff168273ffffffffffffffffffffffffffffffffffffffff161462000ae25760008062000a89600760008673ffffffffffffffffffffffffffffffffffffffff1673ffffffffffffffffffffffffffffffffffffffff1681526020019081526020016000206200045860201b6200121017856200047060201b60201c565b915091508373ffffffffffffffffffffffffffffffffffffffff167fdec2bacdd2f05b59de34da9b523dff8be42e5e38e818c82fdb0bae774387a724838360405162000ad79291906200124e565b60405180910390a250505b5b505050565b6000818362000af89190620010b4565b905092915050565b82805462000b0e90620012aa565b90600052602060002090601f01602090048101928262000b32576000855562000b7e565b82601f1062000b4d57805160ff191683800117855562000b7e565b8280016001018555821562000b7e579182015b8281111562000b7d57825182559160200191906001019062000b60565b5b50905062000b8d919062000b91565b5090565b5b8082111562000bac57600081600090555060010162000b92565b5090565b6000604051905090565b600080fd5b600080fd5b600080fd5b600080fd5b6000601f19601f8301169050919050565b7f4e487b7100000000000000000000000000000000000000000000000000000000600052604160045260246000fd5b62000c198262000bce565b810181811067ffffffffffffffff8211171562000c3b5762000c3a62000bdf565b5b80604052505050565b600062000c5062000bb0565b905062000c5e828262000c0e565b919050565b600067ffffffffffffffff82111562000c815762000c8062000bdf565b5b62000c8c8262000bce565b9050602081019050919050565b60005b8381101562000cb957808201518184015260208101905062000c9c565b8381111562000cc9576000848401525b50505050565b600062000ce662000ce08462000c63565b62000c44565b90508281526020810184848401111562000d055762000d0462000bc9565b5b62000d1284828562000c99565b509392505050565b600082601f83011262000d325762000d3162000bc4565b5b815162000d4484826020860162000ccf565b91505092915050565b6000819050919050565b62000d628162000d4d565b811462000d6e57600080fd5b50565b60008151905062000d828162000d57565b92915050565b60008060006060848603121562000da45762000da362000bba565b5b600084015167ffffffffffffffff81111562000dc55762000dc462000bbf565b5b62000dd38682870162000d1a565b935050602084015167ffffffffffffffff81111562000df75762000df662000bbf565b5b62000e058682870162000d1a565b925050604062000e188682870162000d71565b9150509250925092565b6000819050919050565b62000e378162000e22565b82525050565b62000e488162000d4d565b82525050565b600073ffffffffffffffffffffffffffffffffffffffff82169050919050565b600062000e7b8262000e4e565b9050919050565b62000e8d8162000e6e565b82525050565b600060a08201905062000eaa600083018862000e2c565b62000eb9602083018762000e2c565b62000ec8604083018662000e2c565b62000ed7606083018562000e3d565b62000ee6608083018462000e82565b9695505050505050565b600082825260208201905092915050565b7f4552433230566f7465733a20746f74616c20737570706c79207269736b73206f60008201527f766572666c6f77696e6720766f74657300000000000000000000000000000000602082015250565b600062000f5f60308362000ef0565b915062000f6c8262000f01565b604082019050919050565b6000602082019050818103600083015262000f928162000f50565b9050919050565b7f45524332303a206d696e7420746f20746865207a65726f206164647265737300600082015250565b600062000fd1601f8362000ef0565b915062000fde8262000f99565b602082019050919050565b60006020820190508181036000830152620010048162000fc2565b9050919050565b7f4e487b7100000000000000000000000000000000000000000000000000000000600052601160045260246000fd5b6000620010478262000d4d565b9150620010548362000d4d565b9250827fffffffffffffffffffffffffffffffffffffffffffffffffffffffffffffffff038211156200108c576200108b6200100b565b5b828201905092915050565b6000602082019050620010ae600083018462000e3d565b92915050565b6000620010c18262000d4d565b9150620010ce8362000d4d565b925082821015620010e457620010e36200100b565b5b828203905092915050565b7f4e487b7100000000000000000000000000000000000000000000000000000000600052603260045260246000fd5b7f53616665436173743a2076616c756520646f65736e27742066697420696e203260008201527f3234206269747300000000000000000000000000000000000000000000000000602082015250565b60006200117c60278362000ef0565b915062001189826200111e565b604082019050919050565b60006020820190508181036000830152620011af816200116d565b9050919050565b7f53616665436173743a2076616c756520646f65736e27742066697420696e203360008201527f3220626974730000000000000000000000000000000000000000000000000000602082015250565b60006200121460268362000ef0565b91506200122182620011b6565b604082019050919050565b60006020820190508181036000830152620012478162001205565b9050919050565b600060408201905062001265600083018562000e3d565b62001274602083018462000e3d565b9392505050565b7f4e487b7100000000000000000000000000000000000000000000000000000000600052602260045260246000fd5b60006002820490506001821680620012c357607f821691505b60208210811415620012da57620012d96200127b565b5b50919050565b60805160a05160c05160e0516101005161012051610140516138716200133b6000396000610d910152600061182c0152600061186e0152600061184d01526000611782015260006117d80152600061180101526138716000f3fe608060405234801561001057600080fd5b50600436106101425760003560e01c806370a08231116100b8578063a457c2d71161007c578063a457c2d7146103d9578063a9059cbb14610409578063c3cda52014610439578063d505accf14610455578063dd62ed3e14610471578063f1127ed8146104a157610142565b806370a08231146102fb5780637ecebe001461032b5780638e539e8c1461035b57806395d89b411461038b5780639ab24eb0146103a957610142565b80633644e5151161010a5780633644e51514610201578063395093511461021f5780633a46b1a81461024f578063587cde1e1461027f5780635c19a95c146102af5780636fcfff45146102cb57610142565b806306fdde0314610147578063095ea7b31461016557806318160ddd1461019557806323b872dd146101b3578063313ce567146101e3575b600080fd5b61014f6104d1565b60405161015c919061247b565b60405180910390f35b61017f600480360381019061017a9190612536565b610563565b60405161018c9190612591565b60405180910390f35b61019d610581565b6040516101aa91906125bb565b60405180910390f35b6101cd60048036038101906101c891906125d6565b61058b565b6040516101da9190612591565b60405180910390f35b6101eb610683565b6040516101f89190612645565b60405180910390f35b61020961068c565b6040516102169190612679565b60405180910390f35b61023960048036038101906102349190612536565b61069b565b6040516102469190612591565b60405180910390f35b61026960048036038101906102649190612536565b610747565b60405161027691906125bb565b60405180910390f35b61029960048036038101906102949190612694565b6107db565b6040516102a691906126d0565b60405180910390f35b6102c960048036038101906102c49190612694565b610844565b005b6102e560048036038101906102e09190612694565b610858565b6040516102f2919061270a565b60405180910390f35b61031560048036038101906103109190612694565b6108ac565b60405161032291906125bb565b60405180910390f35b61034560048036038101906103409190612694565b6108f4565b60405161035291906125bb565b60405180910390f35b61037560048036038101906103709190612725565b610944565b60405161038291906125bb565b60405180910390f35b61039361099a565b6040516103a0919061247b565b60405180910390f35b6103c360048036038101906103be9190612694565b610a2c565b6040516103d091906125bb565b60405180910390f35b6103f360048036038101906103ee9190612536565b610b3d565b6040516104009190612591565b60405180910390f35b610423600480360381019061041e9190612536565b610c28565b6040516104309190612591565b60405180910390f35b610453600480360381019061044e91906127aa565b610c46565b005b61046f600480360381019061046a9190612837565b610d4a565b005b61048b600480360381019061048691906128d9565b610e8c565b60405161049891906125bb565b60405180910390f35b6104bb60048036038101906104b69190612945565b610f13565b6040516104c891906129fa565b60405180910390f35b6060600380546104e090612a44565b80601f016020809104026020016040519081016040528092919081815260200182805461050c90612a44565b80156105595780601f1061052e57610100808354040283529160200191610559565b820191906000526020600020905b81548152906001019060200180831161053c57829003601f168201915b5050505050905090565b600061057761057061132a565b8484611332565b6001905092915050565b6000600254905090565b60006105988484846114fd565b6000600160008673ffffffffffffffffffffffffffffffffffffffff1673ffffffffffffffffffffffffffffffffffffffff16815260200190815260200160002060006105e361132a565b73ffffffffffffffffffffffffffffffffffffffff1673ffffffffffffffffffffffffffffffffffffffff16815260200190815260200160002054905082811015610663576040517f08c379a000000000000000000000000000000000000000000000000000000000815260040161065a90612ae8565b60405180910390fd5b6106778561066f61132a565b858403611332565b60019150509392505050565b60006012905090565b600061069661177e565b905090565b600061073d6106a861132a565b8484600160006106b661132a565b73ffffffffffffffffffffffffffffffffffffffff1673ffffffffffffffffffffffffffffffffffffffff16815260200190815260200160002060008873ffffffffffffffffffffffffffffffffffffffff1673ffffffffffffffffffffffffffffffffffffffff168152602001908152602001600020546107389190612b37565b611332565b6001905092915050565b600043821061078b576040517f08c379a000000000000000000000000000000000000000000000000000000000815260040161078290612bd9565b60405180910390fd5b6107d3600760008573ffffffffffffffffffffffffffffffffffffffff1673ffffffffffffffffffffffffffffffffffffffff16815260200190815260200160002083611898565b905092915050565b6000600660008373ffffffffffffffffffffffffffffffffffffffff1673ffffffffffffffffffffffffffffffffffffffff16815260200190815260200160002060009054906101000a900473ffffffffffffffffffffffffffffffffffffffff169050919050565b61085561084f61132a565b826119a4565b50565b60006108a5600760008473ffffffffffffffffffffffffffffffffffffffff1673ffffffffffffffffffffffffffffffffffffffff16815260200190815260200160002080549050611291565b9050919050565b60008060008373ffffffffffffffffffffffffffffffffffffffff1673ffffffffffffffffffffffffffffffffffffffff168152602001908152602001600020549050919050565b600061093d600560008473ffffffffffffffffffffffffffffffffffffffff1673ffffffffffffffffffffffffffffffffffffffff168152602001908152602001600020611abe565b9050919050565b6000438210610988576040517f08c379a000000000000000000000000000000000000000000000000000000000815260040161097f90612bd9565b60405180910390fd5b610993600883611898565b9050919050565b6060600480546109a990612a44565b80601f01602080910402602001604051908101604052809291908181526020018280546109d590612a44565b8015610a225780601f106109f757610100808354040283529160200191610a22565b820191906000526020600020905b815481529060010190602001808311610a0557829003601f168201915b5050505050905090565b600080600760008473ffffffffffffffffffffffffffffffffffffffff1673ffffffffffffffffffffffffffffffffffffffff16815260200190815260200160002080549050905060008114610b1457600760008473ffffffffffffffffffffffffffffffffffffffff1673ffffffffffffffffffffffffffffffffffffffff168152602001908152602001600020600182610ac89190612bf9565b81548110610ad957610ad8612c2d565b5b9060005260206000200160000160049054906101000a90047bffffffffffffffffffffffffffffffffffffffffffffffffffffffff16610b17565b60005b7bffffffffffffffffffffffffffffffffffffffffffffffffffffffff16915050919050565b60008060016000610b4c61132a565b73ffffffffffffffffffffffffffffffffffffffff1673ffffffffffffffffffffffffffffffffffffffff16815260200190815260200160002060008573ffffffffffffffffffffffffffffffffffffffff1673ffffffffffffffffffffffffffffffffffffffff16815260200190815260200160002054905082811015610c09576040517f08c379a0000000000000000000000000000000000000000000000000000000008152600401610c0090612cce565b60405180910390fd5b610c1d610c1461132a565b85858403611332565b600191505092915050565b6000610c3c610c3561132a565b84846114fd565b6001905092915050565b83421115610c89576040517f08c379a0000000000000000000000000000000000000000000000000000000008152600401610c8090612d3a565b60405180910390fd5b6000610ceb610ce37fe48329057bfd03d55e49b547132e39cffd9c1820ad7b9d4c5307691425d15adf898989604051602001610cc89493929190612d5a565b60405160208183030381529060405280519060200120611acc565b858585611ae6565b9050610cf681611b11565b8614610d37576040517f08c379a0000000000000000000000000000000000000000000000000000000008152600401610d2e90612deb565b60405180910390fd5b610d4181886119a4565b50505050505050565b83421115610d8d576040517f08c379a0000000000000000000000000000000000000000000000000000000008152600401610d8490612e57565b60405180910390fd5b60007f0000000000000000000000000000000000000000000000000000000000000000888888610dbc8c611b11565b89604051602001610dd296959493929190612e77565b6040516020818303038152906040528051906020012090506000610df582611acc565b90506000610e0582878787611ae6565b90508973ffffffffffffffffffffffffffffffffffffffff168173ffffffffffffffffffffffffffffffffffffffff1614610e75576040517f08c379a0000000000000000000000000000000000000000000000000000000008152600401610e6c90612f24565b60405180910390fd5b610e808a8a8a611332565b50505050505050505050565b6000600160008473ffffffffffffffffffffffffffffffffffffffff1673ffffffffffffffffffffffffffffffffffffffff16815260200190815260200160002060008373ffffffffffffffffffffffffffffffffffffffff1673ffffffffffffffffffffffffffffffffffffffff16815260200190815260200160002054905092915050565b610f1b6123a4565b600760008473ffffffffffffffffffffffffffffffffffffffff1673ffffffffffffffffffffffffffffffffffffffff1681526020019081526020016000208263ffffffff1681548110610f7257610f71612c2d565b5b906000526020600020016040518060400160405290816000820160009054906101000a900463ffffffff1663ffffffff1663ffffffff1681526020016000820160049054906101000a90047bffffffffffffffffffffffffffffffffffffffffffffffffffffffff167bffffffffffffffffffffffffffffffffffffffffffffffffffffffff167bffffffffffffffffffffffffffffffffffffffffffffffffffffffff1681525050905092915050565b61102d82826110b0565b611035611b6f565b7bffffffffffffffffffffffffffffffffffffffffffffffffffffffff1661105b610581565b111561109c576040517f08c379a000000000000000000000000000000000000000000000000000000000815260040161109390612fb6565b60405180910390fd5b6110aa600861121083611b93565b50505050565b600073ffffffffffffffffffffffffffffffffffffffff168273ffffffffffffffffffffffffffffffffffffffff161415611120576040517f08c379a000000000000000000000000000000000000000000000000000000000815260040161111790613022565b60405180910390fd5b61112c60008383611e0b565b806002600082825461113e9190612b37565b92505081905550806000808473ffffffffffffffffffffffffffffffffffffffff1673ffffffffffffffffffffffffffffffffffffffff16815260200190815260200160002060008282546111939190612b37565b925050819055508173ffffffffffffffffffffffffffffffffffffffff16600073ffffffffffffffffffffffffffffffffffffffff167fddf252ad1be2c89b69c2b068fc378daa952ba7f163c4a11628f55a4df523b3ef836040516111f891906125bb565b60405180910390a361120c60008383611e10565b5050565b6000818361121e9190612b37565b905092915050565b60007bffffffffffffffffffffffffffffffffffffffffffffffffffffffff8016821115611289576040517f08c379a0000000000000000000000000000000000000000000000000000000008152600401611280906130b4565b60405180910390fd5b819050919050565b600063ffffffff80168211156112dc576040517f08c379a00000000000000000000000000000000000000000000000000000000081526004016112d390613146565b60405180910390fd5b819050919050565b6112ef83838361130f565b61130a6112fb846107db565b611304846107db565b83611e20565b505050565b505050565b600081836113229190612bf9565b905092915050565b600033905090565b600073ffffffffffffffffffffffffffffffffffffffff168373ffffffffffffffffffffffffffffffffffffffff1614156113a2576040517f08c379a0000000000000000000000000000000000000000000000000000000008152600401611399906131d8565b60405180910390fd5b600073ffffffffffffffffffffffffffffffffffffffff168273ffffffffffffffffffffffffffffffffffffffff161415611412576040517f08c379a00000000000000000000000000000000000000000000000000000000081526004016114099061326a565b60405180910390fd5b80600160008573ffffffffffffffffffffffffffffffffffffffff1673ffffffffffffffffffffffffffffffffffffffff16815260200190815260200160002060008473ffffffffffffffffffffffffffffffffffffffff1673ffffffffffffffffffffffffffffffffffffffff168152602001908152602001600020819055508173ffffffffffffffffffffffffffffffffffffffff168373ffffffffffffffffffffffffffffffffffffffff167f8c5be1e5ebec7d5bd14f71427d1e84f3dd0314c0f7b2291e5b200ac8c7c3b925836040516114f091906125bb565b60405180910390a3505050565b600073ffffffffffffffffffffffffffffffffffffffff168373ffffffffffffffffffffffffffffffffffffffff16141561156d576040517f08c379a0000000000000000000000000000000000000000000000000000000008152600401611564906132fc565b60405180910390fd5b600073ffffffffffffffffffffffffffffffffffffffff168273ffffffffffffffffffffffffffffffffffffffff1614156115dd576040517f08c379a00000000000000000000000000000000000000000000000000000000081526004016115d49061338e565b60405180910390fd5b6115e8838383611e0b565b60008060008573ffffffffffffffffffffffffffffffffffffffff1673ffffffffffffffffffffffffffffffffffffffff1681526020019081526020016000205490508181101561166e576040517f08c379a000000000000000000000000000000000000000000000000000000000815260040161166590613420565b60405180910390fd5b8181036000808673ffffffffffffffffffffffffffffffffffffffff1673ffffffffffffffffffffffffffffffffffffffff16815260200190815260200160002081905550816000808573ffffffffffffffffffffffffffffffffffffffff1673ffffffffffffffffffffffffffffffffffffffff16815260200190815260200160002060008282546117019190612b37565b925050819055508273ffffffffffffffffffffffffffffffffffffffff168473ffffffffffffffffffffffffffffffffffffffff167fddf252ad1be2c89b69c2b068fc378daa952ba7f163c4a11628f55a4df523b3ef8460405161176591906125bb565b60405180910390a3611778848484611e10565b50505050565b60007f000000000000000000000000000000000000000000000000000000000000000073ffffffffffffffffffffffffffffffffffffffff163073ffffffffffffffffffffffffffffffffffffffff161480156117fa57507f000000000000000000000000000000000000000000000000000000000000000046145b15611827577f00000000000000000000000000000000000000000000000000000000000000009050611895565b6118927f00000000000000000000000000000000000000000000000000000000000000007f00000000000000000000000000000000000000000000000000000000000000007f0000000000000000000000000000000000000000000000000000000000000000612019565b90505b90565b6000808380549050905060005b818110156119175760006118b98284612053565b9050848682815481106118cf576118ce612c2d565b5b9060005260206000200160000160009054906101000a900463ffffffff1663ffffffff16111561190157809250611911565b60018161190e9190612b37565b91505b506118a5565b60008214611979578460018361192d9190612bf9565b8154811061193e5761193d612c2d565b5b9060005260206000200160000160049054906101000a90047bffffffffffffffffffffffffffffffffffffffffffffffffffffffff1661197c565b60005b7bffffffffffffffffffffffffffffffffffffffffffffffffffffffff169250505092915050565b60006119af836107db565b905060006119bc846108ac565b905082600660008673ffffffffffffffffffffffffffffffffffffffff1673ffffffffffffffffffffffffffffffffffffffff16815260200190815260200160002060006101000a81548173ffffffffffffffffffffffffffffffffffffffff021916908373ffffffffffffffffffffffffffffffffffffffff1602179055508273ffffffffffffffffffffffffffffffffffffffff168273ffffffffffffffffffffffffffffffffffffffff168573ffffffffffffffffffffffffffffffffffffffff167f3134e8a2e6d97e929a7e54011ea5485d7d196dd5f0ba4d4ef95803e8e3fc257f60405160405180910390a4611ab8828483611e20565b50505050565b600081600001549050919050565b6000611adf611ad961177e565b83612079565b9050919050565b6000806000611af7878787876120ac565b91509150611b04816121b9565b8192505050949350505050565b600080600560008473ffffffffffffffffffffffffffffffffffffffff1673ffffffffffffffffffffffffffffffffffffffff1681526020019081526020016000209050611b5e81611abe565b9150611b698161238e565b50919050565b60007bffffffffffffffffffffffffffffffffffffffffffffffffffffffff905090565b60008060008580549050905060008114611c015785600182611bb59190612bf9565b81548110611bc657611bc5612c2d565b5b9060005260206000200160000160049054906101000a90047bffffffffffffffffffffffffffffffffffffffffffffffffffffffff16611c04565b60005b7bffffffffffffffffffffffffffffffffffffffffffffffffffffffff169250611c3283858763ffffffff16565b9150600081118015611c8557504386600183611c4e9190612bf9565b81548110611c5f57611c5e612c2d565b5b9060005260206000200160000160009054906101000a900463ffffffff1663ffffffff16145b15611d1257611c9382611226565b86600183611ca19190612bf9565b81548110611cb257611cb1612c2d565b5b9060005260206000200160000160046101000a8154817bffffffffffffffffffffffffffffffffffffffffffffffffffffffff02191690837bffffffffffffffffffffffffffffffffffffffffffffffffffffffff160217905550611e02565b856040518060400160405280611d2743611291565b63ffffffff168152602001611d3b85611226565b7bffffffffffffffffffffffffffffffffffffffffffffffffffffffff168152509080600181540180825580915050600190039060005260206000200160009091909190915060008201518160000160006101000a81548163ffffffff021916908363ffffffff16021790555060208201518160000160046101000a8154817bffffffffffffffffffffffffffffffffffffffffffffffffffffffff02191690837bffffffffffffffffffffffffffffffffffffffffffffffffffffffff16021790555050505b50935093915050565b505050565b611e1b8383836112e4565b505050565b8173ffffffffffffffffffffffffffffffffffffffff168373ffffffffffffffffffffffffffffffffffffffff1614158015611e5c5750600081115b1561201457600073ffffffffffffffffffffffffffffffffffffffff168373ffffffffffffffffffffffffffffffffffffffff1614611f3a57600080611ee3600760008773ffffffffffffffffffffffffffffffffffffffff1673ffffffffffffffffffffffffffffffffffffffff16815260200190815260200160002061131485611b93565b915091508473ffffffffffffffffffffffffffffffffffffffff167fdec2bacdd2f05b59de34da9b523dff8be42e5e38e818c82fdb0bae774387a7248383604051611f2f929190613440565b60405180910390a250505b600073ffffffffffffffffffffffffffffffffffffffff168273ffffffffffffffffffffffffffffffffffffffff161461201357600080611fbc600760008673ffffffffffffffffffffffffffffffffffffffff1673ffffffffffffffffffffffffffffffffffffffff16815260200190815260200160002061121085611b93565b915091508373ffffffffffffffffffffffffffffffffffffffff167fdec2bacdd2f05b59de34da9b523dff8be42e5e38e818c82fdb0bae774387a7248383604051612008929190613440565b60405180910390a250505b5b505050565b60008383834630604051602001612034959493929190613469565b6040516020818303038152906040528051906020012090509392505050565b6000600282841861206491906134eb565b8284166120719190612b37565b905092915050565b6000828260405160200161208e929190613594565b60405160208183030381529060405280519060200120905092915050565b6000807f7fffffffffffffffffffffffffffffff5d576e7357a4501ddfe92f46681b20a08360001c11156120e75760006003915091506121b0565b601b8560ff16141580156120ff5750601c8560ff1614155b156121115760006004915091506121b0565b60006001878787876040516000815260200160405260405161213694939291906135cb565b6020604051602081039080840390855afa158015612158573d6000803e3d6000fd5b505050602060405103519050600073ffffffffffffffffffffffffffffffffffffffff168173ffffffffffffffffffffffffffffffffffffffff1614156121a7576000600192509250506121b0565b80600092509250505b94509492505050565b600060048111156121cd576121cc613610565b5b8160048111156121e0576121df613610565b5b14156121eb5761238b565b600160048111156121ff576121fe613610565b5b81600481111561221257612211613610565b5b1415612253576040517f08c379a000000000000000000000000000000000000000000000000000000000815260040161224a9061368b565b60405180910390fd5b6002600481111561226757612266613610565b5b81600481111561227a57612279613610565b5b14156122bb576040517f08c379a00000000000000000000000000000000000000000000000000000000081526004016122b2906136f7565b60405180910390fd5b600360048111156122cf576122ce613610565b5b8160048111156122e2576122e1613610565b5b1415612323576040517f08c379a000000000000000000000000000000000000000000000000000000000815260040161231a90613789565b60405180910390fd5b60048081111561233657612335613610565b5b81600481111561234957612348613610565b5b141561238a576040517f08c379a00000000000000000000000000000000000000000000000000000000081526004016123819061381b565b60405180910390fd5b5b50565b6001816000016000828254019250508190555050565b6040518060400160405280600063ffffffff16815260200160007bffffffffffffffffffffffffffffffffffffffffffffffffffffffff1681525090565b600081519050919050565b600082825260208201905092915050565b60005b8381101561241c578082015181840152602081019050612401565b8381111561242b576000848401525b50505050565b6000601f19601f8301169050919050565b600061244d826123e2565b61245781856123ed565b93506124678185602086016123fe565b61247081612431565b840191505092915050565b600060208201905081810360008301526124958184612442565b905092915050565b600080fd5b600073ffffffffffffffffffffffffffffffffffffffff82169050919050565b60006124cd826124a2565b9050919050565b6124dd816124c2565b81146124e857600080fd5b50565b6000813590506124fa816124d4565b92915050565b6000819050919050565b61251381612500565b811461251e57600080fd5b50565b6000813590506125308161250a565b92915050565b6000806040838503121561254d5761254c61249d565b5b600061255b858286016124eb565b925050602061256c85828601612521565b9150509250929050565b60008115159050919050565b61258b81612576565b82525050565b60006020820190506125a66000830184612582565b92915050565b6125b581612500565b82525050565b60006020820190506125d060008301846125ac565b92915050565b6000806000606084860312156125ef576125ee61249d565b5b60006125fd868287016124eb565b935050602061260e868287016124eb565b925050604061261f86828701612521565b9150509250925092565b600060ff82169050919050565b61263f81612629565b82525050565b600060208201905061265a6000830184612636565b92915050565b6000819050919050565b61267381612660565b82525050565b600060208201905061268e600083018461266a565b92915050565b6000602082840312156126aa576126a961249d565b5b60006126b8848285016124eb565b91505092915050565b6126ca816124c2565b82525050565b60006020820190506126e560008301846126c1565b92915050565b600063ffffffff82169050919050565b612704816126eb565b82525050565b600060208201905061271f60008301846126fb565b92915050565b60006020828403121561273b5761273a61249d565b5b600061274984828501612521565b91505092915050565b61275b81612629565b811461276657600080fd5b50565b60008135905061277881612752565b92915050565b61278781612660565b811461279257600080fd5b50565b6000813590506127a48161277e565b92915050565b60008060008060008060c087890312156127c7576127c661249d565b5b60006127d589828a016124eb565b96505060206127e689828a01612521565b95505060406127f789828a01612521565b945050606061280889828a01612769565b935050608061281989828a01612795565b92505060a061282a89828a01612795565b9150509295509295509295565b600080600080600080600060e0888a0312156128565761285561249d565b5b60006128648a828b016124eb565b97505060206128758a828b016124eb565b96505060406128868a828b01612521565b95505060606128978a828b01612521565b94505060806128a88a828b01612769565b93505060a06128b98a828b01612795565b92505060c06128ca8a828b01612795565b91505092959891949750929550565b600080604083850312156128f0576128ef61249d565b5b60006128fe858286016124eb565b925050602061290f858286016124eb565b9150509250929050565b612922816126eb565b811461292d57600080fd5b50565b60008135905061293f81612919565b92915050565b6000806040838503121561295c5761295b61249d565b5b600061296a858286016124eb565b925050602061297b85828601612930565b9150509250929050565b61298e816126eb565b82525050565b60007bffffffffffffffffffffffffffffffffffffffffffffffffffffffff82169050919050565b6129c581612994565b82525050565b6040820160008201516129e16000850182612985565b5060208201516129f460208501826129bc565b50505050565b6000604082019050612a0f60008301846129cb565b92915050565b7f4e487b7100000000000000000000000000000000000000000000000000000000600052602260045260246000fd5b60006002820490506001821680612a5c57607f821691505b60208210811415612a7057612a6f612a15565b5b50919050565b7f45524332303a207472616e7366657220616d6f756e742065786365656473206160008201527f6c6c6f77616e6365000000000000000000000000000000000000000000000000602082015250565b6000612ad26028836123ed565b9150612add82612a76565b604082019050919050565b60006020820190508181036000830152612b0181612ac5565b9050919050565b7f4e487b7100000000000000000000000000000000000000000000000000000000600052601160045260246000fd5b6000612b4282612500565b9150612b4d83612500565b9250827fffffffffffffffffffffffffffffffffffffffffffffffffffffffffffffffff03821115612b8257612b81612b08565b5b828201905092915050565b7f4552433230566f7465733a20626c6f636b206e6f7420796574206d696e656400600082015250565b6000612bc3601f836123ed565b9150612bce82612b8d565b602082019050919050565b60006020820190508181036000830152612bf281612bb6565b9050919050565b6000612c0482612500565b9150612c0f83612500565b925082821015612c2257612c21612b08565b5b828203905092915050565b7f4e487b7100000000000000000000000000000000000000000000000000000000600052603260045260246000fd5b7f45524332303a2064656372656173656420616c6c6f77616e63652062656c6f7760008201527f207a65726f000000000000000000000000000000000000000000000000000000602082015250565b6000612cb86025836123ed565b9150612cc382612c5c565b604082019050919050565b60006020820190508181036000830152612ce781612cab565b9050919050565b7f4552433230566f7465733a207369676e61747572652065787069726564000000600082015250565b6000612d24601d836123ed565b9150612d2f82612cee565b602082019050919050565b60006020820190508181036000830152612d5381612d17565b9050919050565b6000608082019050612d6f600083018761266a565b612d7c60208301866126c1565b612d8960408301856125ac565b612d9660608301846125ac565b95945050505050565b7f4552433230566f7465733a20696e76616c6964206e6f6e636500000000000000600082015250565b6000612dd56019836123ed565b9150612de082612d9f565b602082019050919050565b60006020820190508181036000830152612e0481612dc8565b9050919050565b7f45524332305065726d69743a206578706972656420646561646c696e65000000600082015250565b6000612e41601d836123ed565b9150612e4c82612e0b565b602082019050919050565b60006020820190508181036000830152612e7081612e34565b9050919050565b600060c082019050612e8c600083018961266a565b612e9960208301886126c1565b612ea660408301876126c1565b612eb360608301866125ac565b612ec060808301856125ac565b612ecd60a08301846125ac565b979650505050505050565b7f45524332305065726d69743a20696e76616c6964207369676e61747572650000600082015250565b6000612f0e601e836123ed565b9150612f1982612ed8565b602082019050919050565b60006020820190508181036000830152612f3d81612f01565b9050919050565b7f4552433230566f7465733a20746f74616c20737570706c79207269736b73206f60008201527f766572666c6f77696e6720766f74657300000000000000000000000000000000602082015250565b6000612fa06030836123ed565b9150612fab82612f44565b604082019050919050565b60006020820190508181036000830152612fcf81612f93565b9050919050565b7f45524332303a206d696e7420746f20746865207a65726f206164647265737300600082015250565b600061300c601f836123ed565b915061301782612fd6565b602082019050919050565b6000602082019050818103600083015261303b81612fff565b9050919050565b7f53616665436173743a2076616c756520646f65736e27742066697420696e203260008201527f3234206269747300000000000000000000000000000000000000000000000000602082015250565b600061309e6027836123ed565b91506130a982613042565b604082019050919050565b600060208201905081810360008301526130cd81613091565b9050919050565b7f53616665436173743a2076616c756520646f65736e27742066697420696e203360008201527f3220626974730000000000000000000000000000000000000000000000000000602082015250565b60006131306026836123ed565b915061313b826130d4565b604082019050919050565b6000602082019050818103600083015261315f81613123565b9050919050565b7f45524332303a20617070726f76652066726f6d20746865207a65726f2061646460008201527f7265737300000000000000000000000000000000000000000000000000000000602082015250565b60006131c26024836123ed565b91506131cd82613166565b604082019050919050565b600060208201905081810360008301526131f1816131b5565b9050919050565b7f45524332303a20617070726f766520746f20746865207a65726f20616464726560008201527f7373000000000000000000000000000000000000000000000000000000000000602082015250565b60006132546022836123ed565b915061325f826131f8565b604082019050919050565b6000602082019050818103600083015261328381613247565b9050919050565b7f45524332303a207472616e736665722066726f6d20746865207a65726f20616460008201527f6472657373000000000000000000000000000000000000000000000000000000602082015250565b60006132e66025836123ed565b91506132f18261328a565b604082019050919050565b60006020820190508181036000830152613315816132d9565b9050919050565b7f45524332303a207472616e7366657220746f20746865207a65726f206164647260008201527f6573730000000000000000000000000000000000000000000000000000000000602082015250565b60006133786023836123ed565b91506133838261331c565b604082019050919050565b600060208201905081810360008301526133a78161336b565b9050919050565b7f45524332303a207472616e7366657220616d6f756e742065786365656473206260008201527f616c616e63650000000000000000000000000000000000000000000000000000602082015250565b600061340a6026836123ed565b9150613415826133ae565b604082019050919050565b60006020820190508181036000830152613439816133fd565b9050919050565b600060408201905061345560008301856125ac565b61346260208301846125ac565b9392505050565b600060a08201905061347e600083018861266a565b61348b602083018761266a565b613498604083018661266a565b6134a560608301856125ac565b6134b260808301846126c1565b9695505050505050565b7f4e487b7100000000000000000000000000000000000000000000000000000000600052601260045260246000fd5b60006134f682612500565b915061350183612500565b925082613511576135106134bc565b5b828204905092915050565b600081905092915050565b7f1901000000000000000000000000000000000000000000000000000000000000600082015250565b600061355d60028361351c565b915061356882613527565b600282019050919050565b6000819050919050565b61358e61358982612660565b613573565b82525050565b600061359f82613550565b91506135ab828561357d565b6020820191506135bb828461357d565b6020820191508190509392505050565b60006080820190506135e0600083018761266a565b6135ed6020830186612636565b6135fa604083018561266a565b613607606083018461266a565b95945050505050565b7f4e487b7100000000000000000000000000000000000000000000000000000000600052602160045260246000fd5b7f45434453413a20696e76616c6964207369676e61747572650000000000000000600082015250565b60006136756018836123ed565b91506136808261363f565b602082019050919050565b600060208201905081810360008301526136a481613668565b9050919050565b7f45434453413a20696e76616c6964207369676e6174757265206c656e67746800600082015250565b60006136e1601f836123ed565b91506136ec826136ab565b602082019050919050565b60006020820190508181036000830152613710816136d4565b9050919050565b7f45434453413a20696e76616c6964207369676e6174757265202773272076616c60008201527f7565000000000000000000000000000000000000000000000000000000000000602082015250565b60006137736022836123ed565b915061377e82613717565b604082019050919050565b600060208201905081810360008301526137a281613766565b9050919050565b7f45434453413a20696e76616c6964207369676e6174757265202776272076616c60008201527f7565000000000000000000000000000000000000000000000000000000000000602082015250565b60006138056022836123ed565b9150613810826137a9565b604082019050919050565b60006020820190508181036000830152613834816137f8565b905091905056fea26469706673582212207b35ee3c332f766948ea92544e9ba7b2e3d59a797904af7aab6cd36058cccf5364736f6c63430008090033a264697066735822122077312c3b48087a867aa110beba35d6e06a9a02b4573714d733bf5a3f656de6d764736f6c63430008090033",
  "linkReferences": {},
  "deployedLinkReferences": {}
}