{
  "_format": "hh-sol-artifact-1",
  "contractName": "GitDAO",
  "sourceName": "contracts/GitDAO.sol",
  "abi": [
    {
      "inputs": [],
      "stateMutability": "nonpayable",
      "type": "constructor"
    },
    {
      "inputs": [
        {
          "internalType": "address",
          "name": "_to",
          "type": "address"
        },
        {
          "internalType": "uint256",
          "name": "_tokenAmount",
          "type": "uint256"
        },
        {
          "internalType": "uint256",
          "name": "_price",
          "type": "uint256"
        }
      ],
      "name": "buyTokens",
      "outputs": [],
      "stateMutability": "nonpayable",
      "type": "function"
    },
    {
      "inputs": [
        {
          "internalType": "string",
          "name": "_oldEmail",
          "type": "string"
        },
        {
          "internalType": "address",
          "name": "_address",
          "type": "address"
        }
      ],
      "name": "changeAddress",
      "outputs": [],
      "stateMutability": "nonpayable",
      "type": "function"
    },
    {
      "inputs": [
        {
          "internalType": "string",
          "name": "",
          "type": "string"
        }
      ],
      "name": "emailToAddress",
      "outputs": [
        {
          "internalType": "address",
          "name": "",
          "type": "address"
        }
      ],
      "stateMutability": "view",
      "type": "function"
    },
    {
      "inputs": [
        {
          "internalType": "string",
          "name": "_email",
          "type": "string"
        }
      ],
      "name": "registerUser",
      "outputs": [],
      "stateMutability": "nonpayable",
      "type": "function"
    },
    {
      "inputs": [
        {
          "internalType": "string",
          "name": "_email",
          "type": "string"
        },
        {
          "internalType": "uint256",
          "name": "_tokenAmount",
          "type": "uint256"
        }
      ],
      "name": "rewardIndivisual",
      "outputs": [],
      "stateMutability": "nonpayable",
      "type": "function"
    }
  ],
  "bytecode": "0x608060405234801561001057600080fd5b50610939806100206000396000f3fe608060405234801561001057600080fd5b50600436106100575760003560e01c806357a86f531461005c578063704f1b9414610078578063a7dbb40214610094578063d2395dcd146100b0578063ea78dcbf146100cc575b600080fd5b610076600480360381019061007191906105ad565b6100fc565b005b610092600480360381019061008d9190610609565b6101b3565b005b6100ae60048036038101906100a991906106b0565b6102c0565b005b6100ca60048036038101906100c5919061070c565b6103cf565b005b6100e660048036038101906100e19190610609565b6103d4565b6040516100f3919061076e565b60405180910390f35b6000808360405161010d9190610803565b908152602001604051809103902060009054906101000a900473ffffffffffffffffffffffffffffffffffffffff169050600073ffffffffffffffffffffffffffffffffffffffff168173ffffffffffffffffffffffffffffffffffffffff1614156101ae576040517f08c379a00000000000000000000000000000000000000000000000000000000081526004016101a590610877565b60405180910390fd5b505050565b600073ffffffffffffffffffffffffffffffffffffffff166000826040516101db9190610803565b908152602001604051809103902060009054906101000a900473ffffffffffffffffffffffffffffffffffffffff1673ffffffffffffffffffffffffffffffffffffffff1614610260576040517f08c379a0000000000000000000000000000000000000000000000000000000008152600401610257906108e3565b60405180910390fd5b336000826040516102719190610803565b908152602001604051809103902060006101000a81548173ffffffffffffffffffffffffffffffffffffffff021916908373ffffffffffffffffffffffffffffffffffffffff16021790555050565b600073ffffffffffffffffffffffffffffffffffffffff166000836040516102e89190610803565b908152602001604051809103902060009054906101000a900473ffffffffffffffffffffffffffffffffffffffff1673ffffffffffffffffffffffffffffffffffffffff16141561036e576040517f08c379a000000000000000000000000000000000000000000000000000000000815260040161036590610877565b60405180910390fd5b8060008360405161037f9190610803565b908152602001604051809103902060006101000a81548173ffffffffffffffffffffffffffffffffffffffff021916908373ffffffffffffffffffffffffffffffffffffffff1602179055505050565b505050565b6000818051602081018201805184825260208301602085012081835280955050505050506000915054906101000a900473ffffffffffffffffffffffffffffffffffffffff1681565b6000604051905090565b600080fd5b600080fd5b600080fd5b600080fd5b6000601f19601f8301169050919050565b7f4e487b7100000000000000000000000000000000000000000000000000000000600052604160045260246000fd5b6104848261043b565b810181811067ffffffffffffffff821117156104a3576104a261044c565b5b80604052505050565b60006104b661041d565b90506104c2828261047b565b919050565b600067ffffffffffffffff8211156104e2576104e161044c565b5b6104eb8261043b565b9050602081019050919050565b82818337600083830152505050565b600061051a610515846104c7565b6104ac565b90508281526020810184848401111561053657610535610436565b5b6105418482856104f8565b509392505050565b600082601f83011261055e5761055d610431565b5b813561056e848260208601610507565b91505092915050565b6000819050919050565b61058a81610577565b811461059557600080fd5b50565b6000813590506105a781610581565b92915050565b600080604083850312156105c4576105c3610427565b5b600083013567ffffffffffffffff8111156105e2576105e161042c565b5b6105ee85828601610549565b92505060206105ff85828601610598565b9150509250929050565b60006020828403121561061f5761061e610427565b5b600082013567ffffffffffffffff81111561063d5761063c61042c565b5b61064984828501610549565b91505092915050565b600073ffffffffffffffffffffffffffffffffffffffff82169050919050565b600061067d82610652565b9050919050565b61068d81610672565b811461069857600080fd5b50565b6000813590506106aa81610684565b92915050565b600080604083850312156106c7576106c6610427565b5b600083013567ffffffffffffffff8111156106e5576106e461042c565b5b6106f185828601610549565b92505060206107028582860161069b565b9150509250929050565b60008060006060848603121561072557610724610427565b5b60006107338682870161069b565b935050602061074486828701610598565b925050604061075586828701610598565b9150509250925092565b61076881610672565b82525050565b6000602082019050610783600083018461075f565b92915050565b600081519050919050565b600081905092915050565b60005b838110156107bd5780820151818401526020810190506107a2565b838111156107cc576000848401525b50505050565b60006107dd82610789565b6107e78185610794565b93506107f781856020860161079f565b80840191505092915050565b600061080f82846107d2565b915081905092915050565b600082825260208201905092915050565b7f555345525f444f45535f4e4f545f455849535453000000000000000000000000600082015250565b600061086160148361081a565b915061086c8261082b565b602082019050919050565b6000602082019050818103600083015261089081610854565b9050919050565b7f555345525f414c52454144595f45584953545300000000000000000000000000600082015250565b60006108cd60138361081a565b91506108d882610897565b602082019050919050565b600060208201905081810360008301526108fc816108c0565b905091905056fea2646970667358221220cf92ef6278e518631d755c06e53c14d92d32da0c2db933159dfa48a2374cf86f64736f6c63430008090033",
  "linkReferences": {},
  "deployedLinkReferences": {}
}