{
  "_format": "hh-sol-artifact-1",
  "contractName": "DAOFactory",
  "sourceName": "contracts/DAOFactory.sol",
  "abi": [
    {
      "inputs": [
        {
          "internalType": "address",
          "name": "_admin",
          "type": "address"
        },
        {
          "internalType": "address",
          "name": "_daoTokenFactory",
          "type": "address"
        },
        {
          "internalType": "address",
          "name": "_createDAOContract",
          "type": "address"
        },
        {
          "internalType": "address",
          "name": "_createDAOTimelock",
          "type": "address"
        },
        {
          "internalType": "address",
          "name": "_createGitDAO",
          "type": "address"
        },
        {
          "internalType": "uint256",
          "name": "_maxPercentForAdmin",
          "type": "uint256"
        }
      ],
      "stateMutability": "nonpayable",
      "type": "constructor"
    },
    {
      "anonymous": false,
      "inputs": [
        {
          "components": [
            {
              "internalType": "address",
              "name": "daoToken",
              "type": "address"
            },
            {
              "internalType": "address",
              "name": "daoTimelock",
              "type": "address"
            },
            {
              "internalType": "address",
              "name": "dao",
              "type": "address"
            },
            {
              "internalType": "bool",
              "name": "exists",
              "type": "bool"
            }
          ],
          "indexed": false,
          "internalType": "struct DAOFactory.DAOInfo",
          "name": "dinfo",
          "type": "tuple"
        },
        {
          "indexed": false,
          "internalType": "address[2]",
          "name": "gitDaoCreator",
          "type": "address[2]"
        },
        {
          "indexed": false,
          "internalType": "string",
          "name": "gitUrl",
          "type": "string"
        },
        {
          "indexed": false,
          "internalType": "string",
          "name": "gitId",
          "type": "string"
        }
      ],
      "name": "DAOCreated",
      "type": "event"
    },
    {
      "inputs": [
        {
          "internalType": "string",
          "name": "",
          "type": "string"
        }
      ],
      "name": "GithubRepoNameToDAOInfo",
      "outputs": [
        {
          "internalType": "address",
          "name": "daoToken",
          "type": "address"
        },
        {
          "internalType": "address",
          "name": "daoTimelock",
          "type": "address"
        },
        {
          "internalType": "address",
          "name": "dao",
          "type": "address"
        },
        {
          "internalType": "bool",
          "name": "exists",
          "type": "bool"
        }
      ],
      "stateMutability": "view",
      "type": "function"
    },
    {
      "inputs": [],
      "name": "admin",
      "outputs": [
        {
          "internalType": "address",
          "name": "",
          "type": "address"
        }
      ],
      "stateMutability": "view",
      "type": "function"
    },
    {
      "inputs": [
        {
          "internalType": "string",
          "name": "_daoTokenName",
          "type": "string"
        },
        {
          "internalType": "string",
          "name": "_daoTokenSymbol",
          "type": "string"
        },
        {
          "internalType": "uint256",
          "name": "_daoTokenSupply",
          "type": "uint256"
        },
        {
          "internalType": "uint256",
          "name": "_percentForAdmin",
          "type": "uint256"
        },
        {
          "internalType": "uint256",
          "name": "_minDelay",
          "type": "uint256"
        },
        {
          "internalType": "uint256",
          "name": "_quorumPercentage",
          "type": "uint256"
        },
        {
          "internalType": "uint256",
          "name": "_votingPeriod",
          "type": "uint256"
        },
        {
          "internalType": "uint256",
          "name": "_votingDelay",
          "type": "uint256"
        },
        {
          "internalType": "string",
          "name": "_githubUrl",
          "type": "string"
        },
        {
          "internalType": "string",
          "name": "_githubId",
          "type": "string"
        }
      ],
      "name": "createDAO",
      "outputs": [],
      "stateMutability": "nonpayable",
      "type": "function"
    },
    {
      "inputs": [],
      "name": "factories",
      "outputs": [
        {
          "internalType": "address",
          "name": "daoTokenFactory",
          "type": "address"
        },
        {
          "internalType": "address",
          "name": "createDAOContract",
          "type": "address"
        },
        {
          "internalType": "address",
          "name": "createDAOTimelock",
          "type": "address"
        },
        {
          "internalType": "address",
          "name": "createGitDAO",
          "type": "address"
        }
      ],
      "stateMutability": "view",
      "type": "function"
    },
    {
      "inputs": [
        {
          "internalType": "address",
          "name": "",
          "type": "address"
        },
        {
          "internalType": "string",
          "name": "",
          "type": "string"
        }
      ],
      "name": "userDaos",
      "outputs": [
        {
          "internalType": "address",
          "name": "daoToken",
          "type": "address"
        },
        {
          "internalType": "address",
          "name": "daoTimelock",
          "type": "address"
        },
        {
          "internalType": "address",
          "name": "dao",
          "type": "address"
        },
        {
          "internalType": "bool",
          "name": "exists",
          "type": "bool"
        }
      ],
      "stateMutability": "view",
      "type": "function"
    }
  ],
  "bytecode": "0x60806040523480156200001157600080fd5b5060405162001beb38038062001beb83398181016040528101906200003791906200023e565b856000806101000a81548173ffffffffffffffffffffffffffffffffffffffff021916908373ffffffffffffffffffffffffffffffffffffffff16021790555084600160000160006101000a81548173ffffffffffffffffffffffffffffffffffffffff021916908373ffffffffffffffffffffffffffffffffffffffff160217905550836001800160006101000a81548173ffffffffffffffffffffffffffffffffffffffff021916908373ffffffffffffffffffffffffffffffffffffffff1602179055508060058190555082600160020160006101000a81548173ffffffffffffffffffffffffffffffffffffffff021916908373ffffffffffffffffffffffffffffffffffffffff16021790555081600160030160006101000a81548173ffffffffffffffffffffffffffffffffffffffff021916908373ffffffffffffffffffffffffffffffffffffffff160217905550505050505050620002da565b600080fd5b600073ffffffffffffffffffffffffffffffffffffffff82169050919050565b6000620001cb826200019e565b9050919050565b620001dd81620001be565b8114620001e957600080fd5b50565b600081519050620001fd81620001d2565b92915050565b6000819050919050565b620002188162000203565b81146200022457600080fd5b50565b60008151905062000238816200020d565b92915050565b60008060008060008060c087890312156200025e576200025d62000199565b5b60006200026e89828a01620001ec565b96505060206200028189828a01620001ec565b95505060406200029489828a01620001ec565b9450506060620002a789828a01620001ec565b9350506080620002ba89828a01620001ec565b92505060a0620002cd89828a0162000227565b9150509295509295509295565b61190180620002ea6000396000f3fe608060405234801561001057600080fd5b50600436106100575760003560e01c8063300fbb7c1461005c5780639248ab3a1461008f578063c9b03fe5146100c2578063f851a440146100de578063fe5b38e4146100fc575b600080fd5b61007660048036038101906100719190610e73565b61011d565b6040516100869493929190610f18565b60405180910390f35b6100a960048036038101906100a49190610f89565b6101d0565b6040516100b99493929190610f18565b60405180910390f35b6100dc60048036038101906100d7919061101b565b610290565b005b6100e6610c57565b6040516100f3919061116a565b60405180910390f35b610104610c7b565b6040516101149493929190611185565b60405180910390f35b6006818051602081018201805184825260208301602085012081835280955050505050506000915090508060000160009054906101000a900473ffffffffffffffffffffffffffffffffffffffff16908060010160009054906101000a900473ffffffffffffffffffffffffffffffffffffffff16908060020160009054906101000a900473ffffffffffffffffffffffffffffffffffffffff16908060020160149054906101000a900460ff16905084565b600760205281600052604060002081805160208101820180518482526020830160208501208183528095505050505050600091509150508060000160009054906101000a900473ffffffffffffffffffffffffffffffffffffffff16908060010160009054906101000a900473ffffffffffffffffffffffffffffffffffffffff16908060020160009054906101000a900473ffffffffffffffffffffffffffffffffffffffff16908060020160149054906101000a900460ff16905084565b6000600760003373ffffffffffffffffffffffffffffffffffffffff1673ffffffffffffffffffffffffffffffffffffffff168152602001908152602001600020836040516102df9190611244565b908152602001604051809103902090508060020160149054906101000a900460ff1615610341576040517f08c379a0000000000000000000000000000000000000000000000000000000008152600401610338906112de565b60405180910390fd5b600554881115610386576040517f08c379a000000000000000000000000000000000000000000000000000000000815260040161037d90611370565b60405180910390fd5b6000600160000160009054906101000a900473ffffffffffffffffffffffffffffffffffffffff16905060008173ffffffffffffffffffffffffffffffffffffffff1663b9f4d2338e8e8e8e306040518663ffffffff1660e01b81526004016103f39594939291906113d8565b602060405180830381600087803b15801561040d57600080fd5b505af1158015610421573d6000803e3d6000fd5b505050506040513d601f19601f82011682018060405250810190610445919061144e565b90506000600160020160009054906101000a900473ffffffffffffffffffffffffffffffffffffffff16905060008173ffffffffffffffffffffffffffffffffffffffff166359c62e5a8c306040518363ffffffff1660e01b81526004016104ae92919061147b565b602060405180830381600087803b1580156104c857600080fd5b505af11580156104dc573d6000803e3d6000fd5b505050506040513d601f19601f82011682018060405250810190610500919061144e565b905060006001800160009054906101000a900473ffffffffffffffffffffffffffffffffffffffff16905060008173ffffffffffffffffffffffffffffffffffffffff1663a561a30586858f8f8f6040518663ffffffff1660e01b815260040161056e9594939291906114a4565b602060405180830381600087803b15801561058857600080fd5b505af115801561059c573d6000803e3d6000fd5b505050506040513d601f19601f820116820180604052508101906105c0919061144e565b9050848760000160006101000a81548173ffffffffffffffffffffffffffffffffffffffff021916908373ffffffffffffffffffffffffffffffffffffffff160217905550828760010160006101000a81548173ffffffffffffffffffffffffffffffffffffffff021916908373ffffffffffffffffffffffffffffffffffffffff160217905550808760020160006101000a81548173ffffffffffffffffffffffffffffffffffffffff021916908373ffffffffffffffffffffffffffffffffffffffff16021790555060018760020160146101000a81548160ff02191690831515021790555060008390508073ffffffffffffffffffffffffffffffffffffffff16632f2ff15d8273ffffffffffffffffffffffffffffffffffffffff16638f61f4f56040518163ffffffff1660e01b815260040160206040518083038186803b15801561070f57600080fd5b505afa158015610723573d6000803e3d6000fd5b505050506040513d601f19601f82011682018060405250810190610747919061152d565b846040518363ffffffff1660e01b8152600401610765929190611569565b600060405180830381600087803b15801561077f57600080fd5b505af1158015610793573d6000803e3d6000fd5b505050508073ffffffffffffffffffffffffffffffffffffffff16632f2ff15d8273ffffffffffffffffffffffffffffffffffffffff166307bd02656040518163ffffffff1660e01b815260040160206040518083038186803b1580156107f957600080fd5b505afa15801561080d573d6000803e3d6000fd5b505050506040513d601f19601f82011682018060405250810190610831919061152d565b60006040518363ffffffff1660e01b8152600401610850929190611569565b600060405180830381600087803b15801561086a57600080fd5b505af115801561087e573d6000803e3d6000fd5b505050508073ffffffffffffffffffffffffffffffffffffffff1663d547741f8273ffffffffffffffffffffffffffffffffffffffff16630d3cf6fc6040518163ffffffff1660e01b815260040160206040518083038186803b1580156108e457600080fd5b505afa1580156108f8573d6000803e3d6000fd5b505050506040513d601f19601f8201168201806040525081019061091c919061152d565b336040518363ffffffff1660e01b815260040161093a929190611569565b600060405180830381600087803b15801561095457600080fd5b505af1158015610968573d6000803e3d6000fd5b505050506000600160030160009054906101000a900473ffffffffffffffffffffffffffffffffffffffff16905060008173ffffffffffffffffffffffffffffffffffffffff16630dc5f51c60405180606001604052808773ffffffffffffffffffffffffffffffffffffffff1673ffffffffffffffffffffffffffffffffffffffff1681526020018973ffffffffffffffffffffffffffffffffffffffff1673ffffffffffffffffffffffffffffffffffffffff1681526020018b73ffffffffffffffffffffffffffffffffffffffff1673ffffffffffffffffffffffffffffffffffffffff168152508e8e6040518463ffffffff1660e01b8152600401610a739392919061163d565b602060405180830381600087803b158015610a8d57600080fd5b505af1158015610aa1573d6000803e3d6000fd5b505050506040513d601f19601f82011682018060405250810190610ac591906116c0565b905060008890508073ffffffffffffffffffffffffffffffffffffffff16638fb58285836040518263ffffffff1660e01b8152600401610b05919061116a565b600060405180830381600087803b158015610b1f57600080fd5b505af1158015610b33573d6000803e3d6000fd5b505050508073ffffffffffffffffffffffffffffffffffffffff1663fa1dc3606040518163ffffffff1660e01b8152600401600060405180830381600087803b158015610b7f57600080fd5b505af1158015610b93573d6000803e3d6000fd5b505050507f3f3be9496960aa004c2a949565d7deb94bd048ad5f72b1b8a76c6bb0196cf4808b60405180604001604052808573ffffffffffffffffffffffffffffffffffffffff1673ffffffffffffffffffffffffffffffffffffffff1681526020013373ffffffffffffffffffffffffffffffffffffffff1673ffffffffffffffffffffffffffffffffffffffff168152508f8f604051610c389493929190611877565b60405180910390a1505050505050505050505050505050505050505050565b60008054906101000a900473ffffffffffffffffffffffffffffffffffffffff1681565b60018060000160009054906101000a900473ffffffffffffffffffffffffffffffffffffffff16908060010160009054906101000a900473ffffffffffffffffffffffffffffffffffffffff16908060020160009054906101000a900473ffffffffffffffffffffffffffffffffffffffff16908060030160009054906101000a900473ffffffffffffffffffffffffffffffffffffffff16905084565b6000604051905090565b600080fd5b600080fd5b600080fd5b600080fd5b6000601f19601f8301169050919050565b7f4e487b7100000000000000000000000000000000000000000000000000000000600052604160045260246000fd5b610d8082610d37565b810181811067ffffffffffffffff82111715610d9f57610d9e610d48565b5b80604052505050565b6000610db2610d19565b9050610dbe8282610d77565b919050565b600067ffffffffffffffff821115610dde57610ddd610d48565b5b610de782610d37565b9050602081019050919050565b82818337600083830152505050565b6000610e16610e1184610dc3565b610da8565b905082815260208101848484011115610e3257610e31610d32565b5b610e3d848285610df4565b509392505050565b600082601f830112610e5a57610e59610d2d565b5b8135610e6a848260208601610e03565b91505092915050565b600060208284031215610e8957610e88610d23565b5b600082013567ffffffffffffffff811115610ea757610ea6610d28565b5b610eb384828501610e45565b91505092915050565b600073ffffffffffffffffffffffffffffffffffffffff82169050919050565b6000610ee782610ebc565b9050919050565b610ef781610edc565b82525050565b60008115159050919050565b610f1281610efd565b82525050565b6000608082019050610f2d6000830187610eee565b610f3a6020830186610eee565b610f476040830185610eee565b610f546060830184610f09565b95945050505050565b610f6681610edc565b8114610f7157600080fd5b50565b600081359050610f8381610f5d565b92915050565b60008060408385031215610fa057610f9f610d23565b5b6000610fae85828601610f74565b925050602083013567ffffffffffffffff811115610fcf57610fce610d28565b5b610fdb85828601610e45565b9150509250929050565b6000819050919050565b610ff881610fe5565b811461100357600080fd5b50565b60008135905061101581610fef565b92915050565b6000806000806000806000806000806101408b8d03121561103f5761103e610d23565b5b60008b013567ffffffffffffffff81111561105d5761105c610d28565b5b6110698d828e01610e45565b9a505060208b013567ffffffffffffffff81111561108a57611089610d28565b5b6110968d828e01610e45565b99505060406110a78d828e01611006565b98505060606110b88d828e01611006565b97505060806110c98d828e01611006565b96505060a06110da8d828e01611006565b95505060c06110eb8d828e01611006565b94505060e06110fc8d828e01611006565b9350506101008b013567ffffffffffffffff81111561111e5761111d610d28565b5b61112a8d828e01610e45565b9250506101208b013567ffffffffffffffff81111561114c5761114b610d28565b5b6111588d828e01610e45565b9150509295989b9194979a5092959850565b600060208201905061117f6000830184610eee565b92915050565b600060808201905061119a6000830187610eee565b6111a76020830186610eee565b6111b46040830185610eee565b6111c16060830184610eee565b95945050505050565b600081519050919050565b600081905092915050565b60005b838110156111fe5780820151818401526020810190506111e3565b8381111561120d576000848401525b50505050565b600061121e826111ca565b61122881856111d5565b93506112388185602086016111e0565b80840191505092915050565b60006112508284611213565b915081905092915050565b600082825260208201905092915050565b7f4c6f6f6b73206c696b65207468652064616f20616c726561647920657869737460008201527f7320666f722074686973207265706f2e00000000000000000000000000000000602082015250565b60006112c860308361125b565b91506112d38261126c565b604082019050919050565b600060208201905081810360008301526112f7816112bb565b9050919050565b7f596f752063616e277420726573657276652074686174206d75636820666f722060008201527f796f757273656c662e0000000000000000000000000000000000000000000000602082015250565b600061135a60298361125b565b9150611365826112fe565b604082019050919050565b600060208201905081810360008301526113898161134d565b9050919050565b600061139b826111ca565b6113a5818561125b565b93506113b58185602086016111e0565b6113be81610d37565b840191505092915050565b6113d281610fe5565b82525050565b600060a08201905081810360008301526113f28188611390565b905081810360208301526114068187611390565b905061141560408301866113c9565b61142260608301856113c9565b61142f6080830184610eee565b9695505050505050565b60008151905061144881610f5d565b92915050565b60006020828403121561146457611463610d23565b5b600061147284828501611439565b91505092915050565b600060408201905061149060008301856113c9565b61149d6020830184610eee565b9392505050565b600060a0820190506114b96000830188610eee565b6114c66020830187610eee565b6114d360408301866113c9565b6114e060608301856113c9565b6114ed60808301846113c9565b9695505050505050565b6000819050919050565b61150a816114f7565b811461151557600080fd5b50565b60008151905061152781611501565b92915050565b60006020828403121561154357611542610d23565b5b600061155184828501611518565b91505092915050565b611563816114f7565b82525050565b600060408201905061157e600083018561155a565b61158b6020830184610eee565b9392505050565b600060039050919050565b600081905092915050565b6000819050919050565b6115bb81610edc565b82525050565b60006115cd83836115b2565b60208301905092915050565b6000602082019050919050565b6115ef81611592565b6115f9818461159d565b9250611604826115a8565b8060005b8381101561163557815161161c87826115c1565b9650611627836115d9565b925050600181019050611608565b505050505050565b600060a08201905061165260008301866115e6565b81810360608301526116648185611390565b905081810360808301526116788184611390565b9050949350505050565b600061168d82610edc565b9050919050565b61169d81611682565b81146116a857600080fd5b50565b6000815190506116ba81611694565b92915050565b6000602082840312156116d6576116d5610d23565b5b60006116e4848285016116ab565b91505092915050565b60008160001c9050919050565b600073ffffffffffffffffffffffffffffffffffffffff82169050919050565b600061172d611728836116ed565b6116fa565b9050919050565b60008160a01c9050919050565b600060ff82169050919050565b600061176161175c83611734565b611741565b9050919050565b61177181610efd565b82525050565b60808201600080830154905061178c8161171a565b61179960008601826115b2565b50600183015490506117aa8161171a565b6117b760208601826115b2565b50600283015490506117c88161171a565b6117d560408601826115b2565b506117df8161174e565b6117ec6060860182611768565b5050505050565b600060029050919050565b600081905092915050565b6000819050919050565b6000602082019050919050565b611829816117f3565b61183381846117fe565b925061183e82611809565b8060005b8381101561186f57815161185687826115c1565b965061186183611813565b925050600181019050611842565b505050505050565b60006101008201905061188d6000830187611777565b61189a6080830186611820565b81810360c08301526118ac8185611390565b905081810360e08301526118c08184611390565b90509594505050505056fea2646970667358221220a0a58ce5aa76417ad8e7a0bb761857403ef965cd3ae6fb061e6fdc577f080c0d64736f6c63430008090033",
  "linkReferences": {},
  "deployedLinkReferences": {}
}