{
  "_format": "hh-sol-artifact-1",
  "contractName": "DAOFactory",
  "sourceName": "contracts/DAOFactory.sol",
  "abi": [
    {
      "inputs": [
        {
          "internalType": "address",
          "name": "_admin",
          "type": "address"
        },
        {
          "internalType": "address",
          "name": "_daoTokenFactory",
          "type": "address"
        },
        {
          "internalType": "address",
          "name": "_createDAOContract",
          "type": "address"
        },
        {
          "internalType": "address",
          "name": "_createDAOTimelock",
          "type": "address"
        },
        {
          "internalType": "address",
          "name": "_createGitDAO",
          "type": "address"
        },
        {
          "internalType": "uint256",
          "name": "_maxPercentForAdmin",
          "type": "uint256"
        }
      ],
      "stateMutability": "nonpayable",
      "type": "constructor"
    },
    {
      "anonymous": false,
      "inputs": [
        {
          "components": [
            {
              "internalType": "address",
              "name": "daoToken",
              "type": "address"
            },
            {
              "internalType": "address",
              "name": "daoTimelock",
              "type": "address"
            },
            {
              "internalType": "address",
              "name": "dao",
              "type": "address"
            },
            {
              "internalType": "bool",
              "name": "exists",
              "type": "bool"
            }
          ],
          "indexed": false,
          "internalType": "struct DAOFactory.DAOInfo",
          "name": "dinfo",
          "type": "tuple"
        },
        {
          "indexed": false,
          "internalType": "address[2]",
          "name": "gitDaoCreator",
          "type": "address[2]"
        },
        {
          "indexed": false,
          "internalType": "string",
          "name": "gitUrl",
          "type": "string"
        },
        {
          "indexed": false,
          "internalType": "string",
          "name": "gitId",
          "type": "string"
        }
      ],
      "name": "DAOCreated",
      "type": "event"
    },
    {
      "inputs": [
        {
          "internalType": "string",
          "name": "",
          "type": "string"
        }
      ],
      "name": "GithubRepoNameToDAOInfo",
      "outputs": [
        {
          "internalType": "address",
          "name": "daoToken",
          "type": "address"
        },
        {
          "internalType": "address",
          "name": "daoTimelock",
          "type": "address"
        },
        {
          "internalType": "address",
          "name": "dao",
          "type": "address"
        },
        {
          "internalType": "bool",
          "name": "exists",
          "type": "bool"
        }
      ],
      "stateMutability": "view",
      "type": "function"
    },
    {
      "inputs": [],
      "name": "admin",
      "outputs": [
        {
          "internalType": "address",
          "name": "",
          "type": "address"
        }
      ],
      "stateMutability": "view",
      "type": "function"
    },
    {
      "inputs": [
        {
          "internalType": "string",
          "name": "_daoTokenName",
          "type": "string"
        },
        {
          "internalType": "string",
          "name": "_daoTokenSymbol",
          "type": "string"
        },
        {
          "internalType": "uint256",
          "name": "_daoTokenSupply",
          "type": "uint256"
        },
        {
          "internalType": "uint256",
          "name": "_percentForAdmin",
          "type": "uint256"
        },
        {
          "internalType": "uint256",
          "name": "_minDelay",
          "type": "uint256"
        },
        {
          "internalType": "uint256",
          "name": "_quorumPercentage",
          "type": "uint256"
        },
        {
          "internalType": "uint256",
          "name": "_votingPeriod",
          "type": "uint256"
        },
        {
          "internalType": "uint256",
          "name": "_votingDelay",
          "type": "uint256"
        },
        {
          "internalType": "string",
          "name": "_githubUrl",
          "type": "string"
        },
        {
          "internalType": "string",
          "name": "_githubId",
          "type": "string"
        }
      ],
      "name": "createDAO",
      "outputs": [],
      "stateMutability": "nonpayable",
      "type": "function"
    },
    {
      "inputs": [],
      "name": "factories",
      "outputs": [
        {
          "internalType": "address",
          "name": "daoTokenFactory",
          "type": "address"
        },
        {
          "internalType": "address",
          "name": "createDAOContract",
          "type": "address"
        },
        {
          "internalType": "address",
          "name": "createDAOTimelock",
          "type": "address"
        },
        {
          "internalType": "address",
          "name": "createGitDAO",
          "type": "address"
        }
      ],
      "stateMutability": "view",
      "type": "function"
    },
    {
      "inputs": [
        {
          "internalType": "address",
          "name": "",
          "type": "address"
        },
        {
          "internalType": "string",
          "name": "",
          "type": "string"
        }
      ],
      "name": "userDaos",
      "outputs": [
        {
          "internalType": "address",
          "name": "daoToken",
          "type": "address"
        },
        {
          "internalType": "address",
          "name": "daoTimelock",
          "type": "address"
        },
        {
          "internalType": "address",
          "name": "dao",
          "type": "address"
        },
        {
          "internalType": "bool",
          "name": "exists",
          "type": "bool"
        }
      ],
      "stateMutability": "view",
      "type": "function"
    }
  ],
  "bytecode": "0x60806040523480156200001157600080fd5b5060405162001bcb38038062001bcb83398181016040528101906200003791906200023e565b856000806101000a81548173ffffffffffffffffffffffffffffffffffffffff021916908373ffffffffffffffffffffffffffffffffffffffff16021790555084600160000160006101000a81548173ffffffffffffffffffffffffffffffffffffffff021916908373ffffffffffffffffffffffffffffffffffffffff160217905550836001800160006101000a81548173ffffffffffffffffffffffffffffffffffffffff021916908373ffffffffffffffffffffffffffffffffffffffff1602179055508060058190555082600160020160006101000a81548173ffffffffffffffffffffffffffffffffffffffff021916908373ffffffffffffffffffffffffffffffffffffffff16021790555081600160030160006101000a81548173ffffffffffffffffffffffffffffffffffffffff021916908373ffffffffffffffffffffffffffffffffffffffff160217905550505050505050620002da565b600080fd5b600073ffffffffffffffffffffffffffffffffffffffff82169050919050565b6000620001cb826200019e565b9050919050565b620001dd81620001be565b8114620001e957600080fd5b50565b600081519050620001fd81620001d2565b92915050565b6000819050919050565b620002188162000203565b81146200022457600080fd5b50565b60008151905062000238816200020d565b92915050565b60008060008060008060c087890312156200025e576200025d62000199565b5b60006200026e89828a01620001ec565b96505060206200028189828a01620001ec565b95505060406200029489828a01620001ec565b9450506060620002a789828a01620001ec565b9350506080620002ba89828a01620001ec565b92505060a0620002cd89828a0162000227565b9150509295509295509295565b6118e180620002ea6000396000f3fe608060405234801561001057600080fd5b50600436106100575760003560e01c8063300fbb7c1461005c5780639248ab3a1461008f578063c9b03fe5146100c2578063f851a440146100de578063fe5b38e4146100fc575b600080fd5b61007660048036038101906100719190610e6f565b61011d565b6040516100869493929190610f14565b60405180910390f35b6100a960048036038101906100a49190610f85565b6101d0565b6040516100b99493929190610f14565b60405180910390f35b6100dc60048036038101906100d79190611017565b610290565b005b6100e6610c53565b6040516100f39190611166565b60405180910390f35b610104610c77565b6040516101149493929190611181565b60405180910390f35b6006818051602081018201805184825260208301602085012081835280955050505050506000915090508060000160009054906101000a900473ffffffffffffffffffffffffffffffffffffffff16908060010160009054906101000a900473ffffffffffffffffffffffffffffffffffffffff16908060020160009054906101000a900473ffffffffffffffffffffffffffffffffffffffff16908060020160149054906101000a900460ff16905084565b600760205281600052604060002081805160208101820180518482526020830160208501208183528095505050505050600091509150508060000160009054906101000a900473ffffffffffffffffffffffffffffffffffffffff16908060010160009054906101000a900473ffffffffffffffffffffffffffffffffffffffff16908060020160009054906101000a900473ffffffffffffffffffffffffffffffffffffffff16908060020160149054906101000a900460ff16905084565b6000600760003373ffffffffffffffffffffffffffffffffffffffff1673ffffffffffffffffffffffffffffffffffffffff168152602001908152602001600020836040516102df9190611240565b908152602001604051809103902090508060020160149054906101000a900460ff1615610341576040517f08c379a0000000000000000000000000000000000000000000000000000000008152600401610338906112da565b60405180910390fd5b600554881115610386576040517f08c379a000000000000000000000000000000000000000000000000000000000815260040161037d9061136c565b60405180910390fd5b6000600160000160009054906101000a900473ffffffffffffffffffffffffffffffffffffffff16905060008173ffffffffffffffffffffffffffffffffffffffff1663bc0d21458e8e8e8e6040518563ffffffff1660e01b81526004016103f194939291906113d4565b602060405180830381600087803b15801561040b57600080fd5b505af115801561041f573d6000803e3d6000fd5b505050506040513d601f19601f82011682018060405250810190610443919061143c565b90506000600160020160009054906101000a900473ffffffffffffffffffffffffffffffffffffffff16905060008173ffffffffffffffffffffffffffffffffffffffff166369dcb8848c6040518263ffffffff1660e01b81526004016104aa9190611469565b602060405180830381600087803b1580156104c457600080fd5b505af11580156104d8573d6000803e3d6000fd5b505050506040513d601f19601f820116820180604052508101906104fc919061143c565b905060006001800160009054906101000a900473ffffffffffffffffffffffffffffffffffffffff16905060008173ffffffffffffffffffffffffffffffffffffffff1663a561a30586858f8f8f6040518663ffffffff1660e01b815260040161056a959493929190611484565b602060405180830381600087803b15801561058457600080fd5b505af1158015610598573d6000803e3d6000fd5b505050506040513d601f19601f820116820180604052508101906105bc919061143c565b9050848760000160006101000a81548173ffffffffffffffffffffffffffffffffffffffff021916908373ffffffffffffffffffffffffffffffffffffffff160217905550828760010160006101000a81548173ffffffffffffffffffffffffffffffffffffffff021916908373ffffffffffffffffffffffffffffffffffffffff160217905550808760020160006101000a81548173ffffffffffffffffffffffffffffffffffffffff021916908373ffffffffffffffffffffffffffffffffffffffff16021790555060018760020160146101000a81548160ff02191690831515021790555060008390508073ffffffffffffffffffffffffffffffffffffffff16632f2ff15d8273ffffffffffffffffffffffffffffffffffffffff16638f61f4f56040518163ffffffff1660e01b815260040160206040518083038186803b15801561070b57600080fd5b505afa15801561071f573d6000803e3d6000fd5b505050506040513d601f19601f82011682018060405250810190610743919061150d565b846040518363ffffffff1660e01b8152600401610761929190611549565b600060405180830381600087803b15801561077b57600080fd5b505af115801561078f573d6000803e3d6000fd5b505050508073ffffffffffffffffffffffffffffffffffffffff16632f2ff15d8273ffffffffffffffffffffffffffffffffffffffff166307bd02656040518163ffffffff1660e01b815260040160206040518083038186803b1580156107f557600080fd5b505afa158015610809573d6000803e3d6000fd5b505050506040513d601f19601f8201168201806040525081019061082d919061150d565b60006040518363ffffffff1660e01b815260040161084c929190611549565b600060405180830381600087803b15801561086657600080fd5b505af115801561087a573d6000803e3d6000fd5b505050508073ffffffffffffffffffffffffffffffffffffffff1663d547741f8273ffffffffffffffffffffffffffffffffffffffff16630d3cf6fc6040518163ffffffff1660e01b815260040160206040518083038186803b1580156108e057600080fd5b505afa1580156108f4573d6000803e3d6000fd5b505050506040513d601f19601f82011682018060405250810190610918919061150d565b336040518363ffffffff1660e01b8152600401610936929190611549565b600060405180830381600087803b15801561095057600080fd5b505af1158015610964573d6000803e3d6000fd5b505050506000600160030160009054906101000a900473ffffffffffffffffffffffffffffffffffffffff16905060008173ffffffffffffffffffffffffffffffffffffffff16630dc5f51c60405180606001604052808773ffffffffffffffffffffffffffffffffffffffff1673ffffffffffffffffffffffffffffffffffffffff1681526020018973ffffffffffffffffffffffffffffffffffffffff1673ffffffffffffffffffffffffffffffffffffffff1681526020018b73ffffffffffffffffffffffffffffffffffffffff1673ffffffffffffffffffffffffffffffffffffffff168152508e8e6040518463ffffffff1660e01b8152600401610a6f9392919061161d565b602060405180830381600087803b158015610a8957600080fd5b505af1158015610a9d573d6000803e3d6000fd5b505050506040513d601f19601f82011682018060405250810190610ac191906116a0565b905060008890508073ffffffffffffffffffffffffffffffffffffffff16638fb58285836040518263ffffffff1660e01b8152600401610b019190611166565b600060405180830381600087803b158015610b1b57600080fd5b505af1158015610b2f573d6000803e3d6000fd5b505050508073ffffffffffffffffffffffffffffffffffffffff1663fa1dc3606040518163ffffffff1660e01b8152600401600060405180830381600087803b158015610b7b57600080fd5b505af1158015610b8f573d6000803e3d6000fd5b505050507f3f3be9496960aa004c2a949565d7deb94bd048ad5f72b1b8a76c6bb0196cf4808b60405180604001604052808573ffffffffffffffffffffffffffffffffffffffff1673ffffffffffffffffffffffffffffffffffffffff1681526020013373ffffffffffffffffffffffffffffffffffffffff1673ffffffffffffffffffffffffffffffffffffffff168152508f8f604051610c349493929190611857565b60405180910390a1505050505050505050505050505050505050505050565b60008054906101000a900473ffffffffffffffffffffffffffffffffffffffff1681565b60018060000160009054906101000a900473ffffffffffffffffffffffffffffffffffffffff16908060010160009054906101000a900473ffffffffffffffffffffffffffffffffffffffff16908060020160009054906101000a900473ffffffffffffffffffffffffffffffffffffffff16908060030160009054906101000a900473ffffffffffffffffffffffffffffffffffffffff16905084565b6000604051905090565b600080fd5b600080fd5b600080fd5b600080fd5b6000601f19601f8301169050919050565b7f4e487b7100000000000000000000000000000000000000000000000000000000600052604160045260246000fd5b610d7c82610d33565b810181811067ffffffffffffffff82111715610d9b57610d9a610d44565b5b80604052505050565b6000610dae610d15565b9050610dba8282610d73565b919050565b600067ffffffffffffffff821115610dda57610dd9610d44565b5b610de382610d33565b9050602081019050919050565b82818337600083830152505050565b6000610e12610e0d84610dbf565b610da4565b905082815260208101848484011115610e2e57610e2d610d2e565b5b610e39848285610df0565b509392505050565b600082601f830112610e5657610e55610d29565b5b8135610e66848260208601610dff565b91505092915050565b600060208284031215610e8557610e84610d1f565b5b600082013567ffffffffffffffff811115610ea357610ea2610d24565b5b610eaf84828501610e41565b91505092915050565b600073ffffffffffffffffffffffffffffffffffffffff82169050919050565b6000610ee382610eb8565b9050919050565b610ef381610ed8565b82525050565b60008115159050919050565b610f0e81610ef9565b82525050565b6000608082019050610f296000830187610eea565b610f366020830186610eea565b610f436040830185610eea565b610f506060830184610f05565b95945050505050565b610f6281610ed8565b8114610f6d57600080fd5b50565b600081359050610f7f81610f59565b92915050565b60008060408385031215610f9c57610f9b610d1f565b5b6000610faa85828601610f70565b925050602083013567ffffffffffffffff811115610fcb57610fca610d24565b5b610fd785828601610e41565b9150509250929050565b6000819050919050565b610ff481610fe1565b8114610fff57600080fd5b50565b60008135905061101181610feb565b92915050565b6000806000806000806000806000806101408b8d03121561103b5761103a610d1f565b5b60008b013567ffffffffffffffff81111561105957611058610d24565b5b6110658d828e01610e41565b9a505060208b013567ffffffffffffffff81111561108657611085610d24565b5b6110928d828e01610e41565b99505060406110a38d828e01611002565b98505060606110b48d828e01611002565b97505060806110c58d828e01611002565b96505060a06110d68d828e01611002565b95505060c06110e78d828e01611002565b94505060e06110f88d828e01611002565b9350506101008b013567ffffffffffffffff81111561111a57611119610d24565b5b6111268d828e01610e41565b9250506101208b013567ffffffffffffffff81111561114857611147610d24565b5b6111548d828e01610e41565b9150509295989b9194979a5092959850565b600060208201905061117b6000830184610eea565b92915050565b60006080820190506111966000830187610eea565b6111a36020830186610eea565b6111b06040830185610eea565b6111bd6060830184610eea565b95945050505050565b600081519050919050565b600081905092915050565b60005b838110156111fa5780820151818401526020810190506111df565b83811115611209576000848401525b50505050565b600061121a826111c6565b61122481856111d1565b93506112348185602086016111dc565b80840191505092915050565b600061124c828461120f565b915081905092915050565b600082825260208201905092915050565b7f4c6f6f6b73206c696b65207468652064616f20616c726561647920657869737460008201527f7320666f722074686973207265706f2e00000000000000000000000000000000602082015250565b60006112c4603083611257565b91506112cf82611268565b604082019050919050565b600060208201905081810360008301526112f3816112b7565b9050919050565b7f596f752063616e277420726573657276652074686174206d75636820666f722060008201527f796f757273656c662e0000000000000000000000000000000000000000000000602082015250565b6000611356602983611257565b9150611361826112fa565b604082019050919050565b6000602082019050818103600083015261138581611349565b9050919050565b6000611397826111c6565b6113a18185611257565b93506113b18185602086016111dc565b6113ba81610d33565b840191505092915050565b6113ce81610fe1565b82525050565b600060808201905081810360008301526113ee818761138c565b90508181036020830152611402818661138c565b905061141160408301856113c5565b61141e60608301846113c5565b95945050505050565b60008151905061143681610f59565b92915050565b60006020828403121561145257611451610d1f565b5b600061146084828501611427565b91505092915050565b600060208201905061147e60008301846113c5565b92915050565b600060a0820190506114996000830188610eea565b6114a66020830187610eea565b6114b360408301866113c5565b6114c060608301856113c5565b6114cd60808301846113c5565b9695505050505050565b6000819050919050565b6114ea816114d7565b81146114f557600080fd5b50565b600081519050611507816114e1565b92915050565b60006020828403121561152357611522610d1f565b5b6000611531848285016114f8565b91505092915050565b611543816114d7565b82525050565b600060408201905061155e600083018561153a565b61156b6020830184610eea565b9392505050565b600060039050919050565b600081905092915050565b6000819050919050565b61159b81610ed8565b82525050565b60006115ad8383611592565b60208301905092915050565b6000602082019050919050565b6115cf81611572565b6115d9818461157d565b92506115e482611588565b8060005b838110156116155781516115fc87826115a1565b9650611607836115b9565b9250506001810190506115e8565b505050505050565b600060a08201905061163260008301866115c6565b8181036060830152611644818561138c565b90508181036080830152611658818461138c565b9050949350505050565b600061166d82610ed8565b9050919050565b61167d81611662565b811461168857600080fd5b50565b60008151905061169a81611674565b92915050565b6000602082840312156116b6576116b5610d1f565b5b60006116c48482850161168b565b91505092915050565b60008160001c9050919050565b600073ffffffffffffffffffffffffffffffffffffffff82169050919050565b600061170d611708836116cd565b6116da565b9050919050565b60008160a01c9050919050565b600060ff82169050919050565b600061174161173c83611714565b611721565b9050919050565b61175181610ef9565b82525050565b60808201600080830154905061176c816116fa565b6117796000860182611592565b506001830154905061178a816116fa565b6117976020860182611592565b50600283015490506117a8816116fa565b6117b56040860182611592565b506117bf8161172e565b6117cc6060860182611748565b5050505050565b600060029050919050565b600081905092915050565b6000819050919050565b6000602082019050919050565b611809816117d3565b61181381846117de565b925061181e826117e9565b8060005b8381101561184f57815161183687826115a1565b9650611841836117f3565b925050600181019050611822565b505050505050565b60006101008201905061186d6000830187611757565b61187a6080830186611800565b81810360c083015261188c818561138c565b905081810360e08301526118a0818461138c565b90509594505050505056fea2646970667358221220b74edca27b06b4ee8bd959af8e5df5caeaa0bf8050f97c8deab6a49543be3c7d64736f6c63430008090033",
  "linkReferences": {},
  "deployedLinkReferences": {}
}