{
  "_format": "hh-sol-artifact-1",
  "contractName": "AFactory",
  "sourceName": "contracts/Test.sol",
  "abi": [
    {
      "inputs": [
        {
          "internalType": "address",
          "name": "_p",
          "type": "address"
        }
      ],
      "stateMutability": "nonpayable",
      "type": "constructor"
    },
    {
      "inputs": [
        {
          "internalType": "uint256",
          "name": "_initial",
          "type": "uint256"
        }
      ],
      "name": "createA",
      "outputs": [
        {
          "internalType": "address",
          "name": "",
          "type": "address"
        }
      ],
      "stateMutability": "nonpayable",
      "type": "function"
    },
    {
      "inputs": [],
      "name": "getA",
      "outputs": [
        {
          "internalType": "address",
          "name": "",
          "type": "address"
        }
      ],
      "stateMutability": "view",
      "type": "function"
    }
  ],
  "bytecode": "0x608060405234801561001057600080fd5b50604051610447380380610447833981810160405281019061003291906100db565b806000806101000a81548173ffffffffffffffffffffffffffffffffffffffff021916908373ffffffffffffffffffffffffffffffffffffffff16021790555050610108565b600080fd5b600073ffffffffffffffffffffffffffffffffffffffff82169050919050565b60006100a88261007d565b9050919050565b6100b88161009d565b81146100c357600080fd5b50565b6000815190506100d5816100af565b92915050565b6000602082840312156100f1576100f0610078565b5b60006100ff848285016100c6565b91505092915050565b610330806101176000396000f3fe608060405234801561001057600080fd5b50600436106100365760003560e01c80632b52d4dd1461003b578063d46300fd1461006b575b600080fd5b610055600480360381019061005091906101ee565b610089565b604051610062919061025c565b60405180910390f35b610073610189565b604051610080919061025c565b60405180910390f35b60008060008054906101000a900473ffffffffffffffffffffffffffffffffffffffff16905060008173ffffffffffffffffffffffffffffffffffffffff1663780900dc856040518263ffffffff1660e01b81526004016100ea9190610286565b602060405180830381600087803b15801561010457600080fd5b505af1158015610118573d6000803e3d6000fd5b505050506040513d601f19601f8201168201806040525081019061013c91906102cd565b905080600160006101000a81548173ffffffffffffffffffffffffffffffffffffffff021916908373ffffffffffffffffffffffffffffffffffffffff1602179055508092505050919050565b6000600160009054906101000a900473ffffffffffffffffffffffffffffffffffffffff16905090565b600080fd5b6000819050919050565b6101cb816101b8565b81146101d657600080fd5b50565b6000813590506101e8816101c2565b92915050565b600060208284031215610204576102036101b3565b5b6000610212848285016101d9565b91505092915050565b600073ffffffffffffffffffffffffffffffffffffffff82169050919050565b60006102468261021b565b9050919050565b6102568161023b565b82525050565b6000602082019050610271600083018461024d565b92915050565b610280816101b8565b82525050565b600060208201905061029b6000830184610277565b92915050565b6102aa8161023b565b81146102b557600080fd5b50565b6000815190506102c7816102a1565b92915050565b6000602082840312156102e3576102e26101b3565b5b60006102f1848285016102b8565b9150509291505056fea26469706673582212204c5666b9731b230edb50228285e079aea16761d73698216d74cf486a47f1877e64736f6c63430008090033",
  "linkReferences": {},
  "deployedLinkReferences": {}
}