{
  "_format": "hh-sol-artifact-1",
  "contractName": "CreateDAOToken",
  "sourceName": "contracts/factories/CreateDAOToken.sol",
  "abi": [
    {
      "inputs": [
        {
          "internalType": "string",
          "name": "_name",
          "type": "string"
        },
        {
          "internalType": "string",
          "name": "_symbol",
          "type": "string"
        },
        {
          "internalType": "uint256",
          "name": "_maxSupply",
          "type": "uint256"
        },
        {
          "internalType": "uint256",
          "name": "_adminPercent",
          "type": "uint256"
        },
        {
          "internalType": "address",
          "name": "_daoFactory",
          "type": "address"
        }
      ],
      "name": "createDAOToken",
      "outputs": [
        {
          "internalType": "address",
          "name": "",
          "type": "address"
        }
      ],
      "stateMutability": "nonpayable",
      "type": "function"
    }
  ],
  "bytecode": "0x608060405234801561001057600080fd5b50615e42806100206000396000f3fe60806040523480156200001157600080fd5b50600436106200002e5760003560e01c8063b9f4d2331462000033575b600080fd5b6200005160048036038101906200004b91906200034d565b62000069565b60405162000060919062000424565b60405180910390f35b600080868686866040516200007e9062000129565b6200008d9493929190620004e5565b604051809103906000f080158015620000aa573d6000803e3d6000fd5b5090508073ffffffffffffffffffffffffffffffffffffffff1663f2fde38b846040518263ffffffff1660e01b8152600401620000e8919062000424565b600060405180830381600087803b1580156200010357600080fd5b505af115801562000118573d6000803e3d6000fd5b505050508091505095945050505050565b6158cc806200054183390190565b6000604051905090565b600080fd5b600080fd5b600080fd5b600080fd5b6000601f19601f8301169050919050565b7f4e487b7100000000000000000000000000000000000000000000000000000000600052604160045260246000fd5b620001a08262000155565b810181811067ffffffffffffffff82111715620001c257620001c162000166565b5b80604052505050565b6000620001d762000137565b9050620001e5828262000195565b919050565b600067ffffffffffffffff82111562000208576200020762000166565b5b620002138262000155565b9050602081019050919050565b82818337600083830152505050565b6000620002466200024084620001ea565b620001cb565b90508281526020810184848401111562000265576200026462000150565b5b6200027284828562000220565b509392505050565b600082601f8301126200029257620002916200014b565b5b8135620002a48482602086016200022f565b91505092915050565b6000819050919050565b620002c281620002ad565b8114620002ce57600080fd5b50565b600081359050620002e281620002b7565b92915050565b600073ffffffffffffffffffffffffffffffffffffffff82169050919050565b60006200031582620002e8565b9050919050565b620003278162000308565b81146200033357600080fd5b50565b60008135905062000347816200031c565b92915050565b600080600080600060a086880312156200036c576200036b62000141565b5b600086013567ffffffffffffffff8111156200038d576200038c62000146565b5b6200039b888289016200027a565b955050602086013567ffffffffffffffff811115620003bf57620003be62000146565b5b620003cd888289016200027a565b9450506040620003e088828901620002d1565b9350506060620003f388828901620002d1565b9250506080620004068882890162000336565b9150509295509295909350565b6200041e8162000308565b82525050565b60006020820190506200043b600083018462000413565b92915050565b600081519050919050565b600082825260208201905092915050565b60005b838110156200047d57808201518184015260208101905062000460565b838111156200048d576000848401525b50505050565b6000620004a08262000441565b620004ac81856200044c565b9350620004be8185602086016200045d565b620004c98162000155565b840191505092915050565b620004df81620002ad565b82525050565b6000608082019050818103600083015262000501818762000493565b9050818103602083015262000517818662000493565b9050620005286040830185620004d4565b620005376060830184620004d4565b9594505050505056fe6101606040527f6e71edae12b1b97f4d1f60370fef10105fa2faae0126114a169c64845d6126c9610140908152506000600b60146101000a81548160ff0219169083151502179055503480156200005557600080fd5b50604051620058cc380380620058cc83398181016040528101906200007b919062000ff7565b83806040518060400160405280600181526020017f310000000000000000000000000000000000000000000000000000000000000081525086868160039080519060200190620000cd92919062000d6f565b508060049080519060200190620000e692919062000d6f565b50505060008280519060200120905060008280519060200120905060007f8b73c3c69bb8fe3d512ecc4cf759cc79239f7b179b0ffacaa9a75d522b39400f90508260e081815250508161010081815250504660a08181525050620001528184846200026e60201b60201c565b608081815250503073ffffffffffffffffffffffffffffffffffffffff1660c08173ffffffffffffffffffffffffffffffffffffffff1681525050806101208181525050505050505050620001bc620001b0620002aa60201b60201c565b620002b260201b60201c565b620001e93360648484620001d19190620010d6565b620001dd919062001166565b6200037860201b60201c565b60648282620001f99190620010d6565b62000205919062001166565b826200021291906200119e565b600a81905550620002646040518060400160405280601681526020017f5472616e73616374696f6e204f726967696e3a20256400000000000000000000815250326200039360201b620015d71760201c565b50505050620016ad565b600083838346306040516020016200028b9594939291906200124a565b6040516020818303038152906040528051906020012090509392505050565b600033905090565b6000600960009054906101000a900473ffffffffffffffffffffffffffffffffffffffff16905081600960006101000a81548173ffffffffffffffffffffffffffffffffffffffff021916908373ffffffffffffffffffffffffffffffffffffffff1602179055508173ffffffffffffffffffffffffffffffffffffffff168173ffffffffffffffffffffffffffffffffffffffff167f8be0079c531659141344cd1fd0a4f28419497f9722a3daafe3b4186f6b6457e060405160405180910390a35050565b6200038f82826200043960201b620016731760201c565b5050565b620004358282604051602401620003ac92919062001304565b6040516020818303038152906040527f319af333000000000000000000000000000000000000000000000000000000007bffffffffffffffffffffffffffffffffffffffffffffffffffffffff19166020820180517bffffffffffffffffffffffffffffffffffffffffffffffffffffffff8381831617835250505050620004f760201b60201c565b5050565b6200045082826200052060201b620017001760201c565b620004606200069960201b60201c565b7bffffffffffffffffffffffffffffffffffffffffffffffffffffffff166200048e620006bd60201b60201c565b1115620004d2576040517f08c379a0000000000000000000000000000000000000000000000000000000008152600401620004c990620013ae565b60405180910390fd5b620004f16008620006c760201b620018601783620006df60201b60201c565b50505050565b60008151905060006a636f6e736f6c652e6c6f679050602083016000808483855afa5050505050565b600073ffffffffffffffffffffffffffffffffffffffff168273ffffffffffffffffffffffffffffffffffffffff16141562000593576040517f08c379a00000000000000000000000000000000000000000000000000000000081526004016200058a9062001420565b60405180910390fd5b620005a7600083836200099060201b60201c565b8060026000828254620005bb919062001442565b92505081905550806000808473ffffffffffffffffffffffffffffffffffffffff1673ffffffffffffffffffffffffffffffffffffffff168152602001908152602001600020600082825462000612919062001442565b925050819055508173ffffffffffffffffffffffffffffffffffffffff16600073ffffffffffffffffffffffffffffffffffffffff167fddf252ad1be2c89b69c2b068fc378daa952ba7f163c4a11628f55a4df523b3ef836040516200067991906200149f565b60405180910390a362000695600083836200099560201b60201c565b5050565b60007bffffffffffffffffffffffffffffffffffffffffffffffffffffffff905090565b6000600254905090565b60008183620006d7919062001442565b905092915050565b600080600085805490509050600081146200075457856001826200070491906200119e565b81548110620007185762000717620014bc565b5b9060005260206000200160000160049054906101000a90047bffffffffffffffffffffffffffffffffffffffffffffffffffffffff1662000757565b60005b7bffffffffffffffffffffffffffffffffffffffffffffffffffffffff1692506200078383858760201c565b9150600081118015620007dc57504386600183620007a291906200119e565b81548110620007b657620007b5620014bc565b5b9060005260206000200160000160009054906101000a900463ffffffff1663ffffffff16145b156200087d57620007f882620009b260201b620018761760201c565b866001836200080891906200119e565b815481106200081c576200081b620014bc565b5b9060005260206000200160000160046101000a8154817bffffffffffffffffffffffffffffffffffffffffffffffffffffffff02191690837bffffffffffffffffffffffffffffffffffffffffffffffffffffffff16021790555062000987565b8560405180604001604052806200089f4362000a2060201b620018e11760201c565b63ffffffff168152602001620008c085620009b260201b620018761760201c565b7bffffffffffffffffffffffffffffffffffffffffffffffffffffffff168152509080600181540180825580915050600190039060005260206000200160009091909190915060008201518160000160006101000a81548163ffffffff021916908363ffffffff16021790555060208201518160000160046101000a8154817bffffffffffffffffffffffffffffffffffffffffffffffffffffffff02191690837bffffffffffffffffffffffffffffffffffffffffffffffffffffffff16021790555050505b50935093915050565b505050565b620009ad83838362000a7660201b620019341760201c565b505050565b60007bffffffffffffffffffffffffffffffffffffffffffffffffffffffff801682111562000a18576040517f08c379a000000000000000000000000000000000000000000000000000000000815260040162000a0f9062001561565b60405180910390fd5b819050919050565b600063ffffffff801682111562000a6e576040517f08c379a000000000000000000000000000000000000000000000000000000000815260040162000a6590620015f9565b60405180910390fd5b819050919050565b62000a8e83838362000ac660201b6200195f1760201c565b62000ac162000aa38462000acb60201b60201c565b62000ab48462000acb60201b60201c565b8362000b3460201b60201c565b505050565b505050565b6000600660008373ffffffffffffffffffffffffffffffffffffffff1673ffffffffffffffffffffffffffffffffffffffff16815260200190815260200160002060009054906101000a900473ffffffffffffffffffffffffffffffffffffffff169050919050565b8173ffffffffffffffffffffffffffffffffffffffff168373ffffffffffffffffffffffffffffffffffffffff161415801562000b715750600081115b1562000d5257600073ffffffffffffffffffffffffffffffffffffffff168373ffffffffffffffffffffffffffffffffffffffff161462000c645760008062000c0b600760008773ffffffffffffffffffffffffffffffffffffffff1673ffffffffffffffffffffffffffffffffffffffff16815260200190815260200160002062000d5760201b620019641785620006df60201b60201c565b915091508473ffffffffffffffffffffffffffffffffffffffff167fdec2bacdd2f05b59de34da9b523dff8be42e5e38e818c82fdb0bae774387a724838360405162000c599291906200161b565b60405180910390a250505b600073ffffffffffffffffffffffffffffffffffffffff168273ffffffffffffffffffffffffffffffffffffffff161462000d515760008062000cf8600760008673ffffffffffffffffffffffffffffffffffffffff1673ffffffffffffffffffffffffffffffffffffffff168152602001908152602001600020620006c760201b620018601785620006df60201b60201c565b915091508373ffffffffffffffffffffffffffffffffffffffff167fdec2bacdd2f05b59de34da9b523dff8be42e5e38e818c82fdb0bae774387a724838360405162000d469291906200161b565b60405180910390a250505b5b505050565b6000818362000d6791906200119e565b905092915050565b82805462000d7d9062001677565b90600052602060002090601f01602090048101928262000da1576000855562000ded565b82601f1062000dbc57805160ff191683800117855562000ded565b8280016001018555821562000ded579182015b8281111562000dec57825182559160200191906001019062000dcf565b5b50905062000dfc919062000e00565b5090565b5b8082111562000e1b57600081600090555060010162000e01565b5090565b6000604051905090565b600080fd5b600080fd5b600080fd5b600080fd5b6000601f19601f8301169050919050565b7f4e487b7100000000000000000000000000000000000000000000000000000000600052604160045260246000fd5b62000e888262000e3d565b810181811067ffffffffffffffff8211171562000eaa5762000ea962000e4e565b5b80604052505050565b600062000ebf62000e1f565b905062000ecd828262000e7d565b919050565b600067ffffffffffffffff82111562000ef05762000eef62000e4e565b5b62000efb8262000e3d565b9050602081019050919050565b60005b8381101562000f2857808201518184015260208101905062000f0b565b8381111562000f38576000848401525b50505050565b600062000f5562000f4f8462000ed2565b62000eb3565b90508281526020810184848401111562000f745762000f7362000e38565b5b62000f8184828562000f08565b509392505050565b600082601f83011262000fa15762000fa062000e33565b5b815162000fb384826020860162000f3e565b91505092915050565b6000819050919050565b62000fd18162000fbc565b811462000fdd57600080fd5b50565b60008151905062000ff18162000fc6565b92915050565b6000806000806080858703121562001014576200101362000e29565b5b600085015167ffffffffffffffff81111562001035576200103462000e2e565b5b620010438782880162000f89565b945050602085015167ffffffffffffffff81111562001067576200106662000e2e565b5b620010758782880162000f89565b9350506040620010888782880162000fe0565b92505060606200109b8782880162000fe0565b91505092959194509250565b7f4e487b7100000000000000000000000000000000000000000000000000000000600052601160045260246000fd5b6000620010e38262000fbc565b9150620010f08362000fbc565b9250817fffffffffffffffffffffffffffffffffffffffffffffffffffffffffffffffff04831182151516156200112c576200112b620010a7565b5b828202905092915050565b7f4e487b7100000000000000000000000000000000000000000000000000000000600052601260045260246000fd5b6000620011738262000fbc565b9150620011808362000fbc565b92508262001193576200119262001137565b5b828204905092915050565b6000620011ab8262000fbc565b9150620011b88362000fbc565b925082821015620011ce57620011cd620010a7565b5b828203905092915050565b6000819050919050565b620011ee81620011d9565b82525050565b620011ff8162000fbc565b82525050565b600073ffffffffffffffffffffffffffffffffffffffff82169050919050565b6000620012328262001205565b9050919050565b620012448162001225565b82525050565b600060a082019050620012616000830188620011e3565b620012706020830187620011e3565b6200127f6040830186620011e3565b6200128e6060830185620011f4565b6200129d608083018462001239565b9695505050505050565b600081519050919050565b600082825260208201905092915050565b6000620012d082620012a7565b620012dc8185620012b2565b9350620012ee81856020860162000f08565b620012f98162000e3d565b840191505092915050565b60006040820190508181036000830152620013208185620012c3565b905062001331602083018462001239565b9392505050565b7f4552433230566f7465733a20746f74616c20737570706c79207269736b73206f60008201527f766572666c6f77696e6720766f74657300000000000000000000000000000000602082015250565b600062001396603083620012b2565b9150620013a38262001338565b604082019050919050565b60006020820190508181036000830152620013c98162001387565b9050919050565b7f45524332303a206d696e7420746f20746865207a65726f206164647265737300600082015250565b600062001408601f83620012b2565b91506200141582620013d0565b602082019050919050565b600060208201905081810360008301526200143b81620013f9565b9050919050565b60006200144f8262000fbc565b91506200145c8362000fbc565b9250827fffffffffffffffffffffffffffffffffffffffffffffffffffffffffffffffff03821115620014945762001493620010a7565b5b828201905092915050565b6000602082019050620014b66000830184620011f4565b92915050565b7f4e487b7100000000000000000000000000000000000000000000000000000000600052603260045260246000fd5b7f53616665436173743a2076616c756520646f65736e27742066697420696e203260008201527f3234206269747300000000000000000000000000000000000000000000000000602082015250565b600062001549602783620012b2565b91506200155682620014eb565b604082019050919050565b600060208201905081810360008301526200157c816200153a565b9050919050565b7f53616665436173743a2076616c756520646f65736e27742066697420696e203360008201527f3220626974730000000000000000000000000000000000000000000000000000602082015250565b6000620015e1602683620012b2565b9150620015ee8262001583565b604082019050919050565b600060208201905081810360008301526200161481620015d2565b9050919050565b6000604082019050620016326000830185620011f4565b620016416020830184620011f4565b9392505050565b7f4e487b7100000000000000000000000000000000000000000000000000000000600052602260045260246000fd5b600060028204905060018216806200169057607f821691505b60208210811415620016a757620016a662001648565b5b50919050565b60805160a05160c05160e0516101005161012051610140516141c462001708600039600061109e01526000611e7c01526000611ebe01526000611e9d01526000611dd201526000611e2801526000611e5101526141c46000f3fe608060405234801561001057600080fd5b50600436106101da5760003560e01c80637ecebe0011610104578063a9059cbb116100a2578063dd62ed3e11610071578063dd62ed3e146105a7578063f1127ed8146105d7578063f2fde38b14610607578063fa1dc36014610623576101da565b8063a9059cbb14610521578063aaf6c65d14610551578063c3cda5201461056f578063d505accf1461058b576101da565b80638fb58285116100de5780638fb582851461048757806395d89b41146104a35780639ab24eb0146104c1578063a457c2d7146104f1576101da565b80637ecebe00146104095780638da5cb5b146104395780638e539e8c14610457576101da565b8063395093511161017c5780635c19a95c1161014b5780635c19a95c146103835780636fcfff451461039f57806370a08231146103cf578063715018a6146103ff576101da565b806339509351146102d55780633a46b1a8146103055780634a7ffcbc14610335578063587cde1e14610353576101da565b806323b872dd116101b857806323b872dd1461024b578063313ce5671461027b5780633644e5151461029957806336ae5040146102b7576101da565b806306fdde03146101df578063095ea7b3146101fd57806318160ddd1461022d575b600080fd5b6101e761062d565b6040516101f49190612bc8565b60405180910390f35b61021760048036038101906102129190612c83565b6106bf565b6040516102249190612cde565b60405180910390f35b6102356106dd565b6040516102429190612d08565b60405180910390f35b61026560048036038101906102609190612d23565b6106e7565b6040516102729190612cde565b60405180910390f35b6102836107df565b6040516102909190612d92565b60405180910390f35b6102a16107e8565b6040516102ae9190612dc6565b60405180910390f35b6102bf6107f7565b6040516102cc9190612cde565b60405180910390f35b6102ef60048036038101906102ea9190612c83565b61080a565b6040516102fc9190612cde565b60405180910390f35b61031f600480360381019061031a9190612c83565b6108b6565b60405161032c9190612d08565b60405180910390f35b61033d61094a565b60405161034a9190612df0565b60405180910390f35b61036d60048036038101906103689190612e0b565b610970565b60405161037a9190612df0565b60405180910390f35b61039d60048036038101906103989190612e0b565b6109d9565b005b6103b960048036038101906103b49190612e0b565b6109ed565b6040516103c69190612e57565b60405180910390f35b6103e960048036038101906103e49190612e0b565b610a41565b6040516103f69190612d08565b60405180910390f35b610407610a89565b005b610423600480360381019061041e9190612e0b565b610b11565b6040516104309190612d08565b60405180910390f35b610441610b61565b60405161044e9190612df0565b60405180910390f35b610471600480360381019061046c9190612e72565b610b8b565b60405161047e9190612d08565b60405180910390f35b6104a1600480360381019061049c9190612e0b565b610be1565b005b6104ab610ca1565b6040516104b89190612bc8565b60405180910390f35b6104db60048036038101906104d69190612e0b565b610d33565b6040516104e89190612d08565b60405180910390f35b61050b60048036038101906105069190612c83565b610e44565b6040516105189190612cde565b60405180910390f35b61053b60048036038101906105369190612c83565b610f2f565b6040516105489190612cde565b60405180910390f35b610559610f4d565b6040516105669190612d08565b60405180910390f35b61058960048036038101906105849190612ef7565b610f53565b005b6105a560048036038101906105a09190612f84565b611057565b005b6105c160048036038101906105bc9190613026565b611199565b6040516105ce9190612d08565b60405180910390f35b6105f160048036038101906105ec9190613092565b611220565b6040516105fe9190613147565b60405180910390f35b610621600480360381019061061c9190612e0b565b611330565b005b61062b611428565b005b60606003805461063c90613191565b80601f016020809104026020016040519081016040528092919081815260200182805461066890613191565b80156106b55780601f1061068a576101008083540402835291602001916106b5565b820191906000526020600020905b81548152906001019060200180831161069857829003601f168201915b5050505050905090565b60006106d36106cc61197a565b8484611982565b6001905092915050565b6000600254905090565b60006106f4848484611b4d565b6000600160008673ffffffffffffffffffffffffffffffffffffffff1673ffffffffffffffffffffffffffffffffffffffff168152602001908152602001600020600061073f61197a565b73ffffffffffffffffffffffffffffffffffffffff1673ffffffffffffffffffffffffffffffffffffffff168152602001908152602001600020549050828110156107bf576040517f08c379a00000000000000000000000000000000000000000000000000000000081526004016107b690613235565b60405180910390fd5b6107d3856107cb61197a565b858403611982565b60019150509392505050565b60006012905090565b60006107f2611dce565b905090565b600b60149054906101000a900460ff1681565b60006108ac61081761197a565b84846001600061082561197a565b73ffffffffffffffffffffffffffffffffffffffff1673ffffffffffffffffffffffffffffffffffffffff16815260200190815260200160002060008873ffffffffffffffffffffffffffffffffffffffff1673ffffffffffffffffffffffffffffffffffffffff168152602001908152602001600020546108a79190613284565b611982565b6001905092915050565b60004382106108fa576040517f08c379a00000000000000000000000000000000000000000000000000000000081526004016108f190613326565b60405180910390fd5b610942600760008573ffffffffffffffffffffffffffffffffffffffff1673ffffffffffffffffffffffffffffffffffffffff16815260200190815260200160002083611ee8565b905092915050565b600b60009054906101000a900473ffffffffffffffffffffffffffffffffffffffff1681565b6000600660008373ffffffffffffffffffffffffffffffffffffffff1673ffffffffffffffffffffffffffffffffffffffff16815260200190815260200160002060009054906101000a900473ffffffffffffffffffffffffffffffffffffffff169050919050565b6109ea6109e461197a565b82611ff4565b50565b6000610a3a600760008473ffffffffffffffffffffffffffffffffffffffff1673ffffffffffffffffffffffffffffffffffffffff168152602001908152602001600020805490506118e1565b9050919050565b60008060008373ffffffffffffffffffffffffffffffffffffffff1673ffffffffffffffffffffffffffffffffffffffff168152602001908152602001600020549050919050565b610a9161197a565b73ffffffffffffffffffffffffffffffffffffffff16610aaf610b61565b73ffffffffffffffffffffffffffffffffffffffff1614610b05576040517f08c379a0000000000000000000000000000000000000000000000000000000008152600401610afc90613392565b60405180910390fd5b610b0f600061210e565b565b6000610b5a600560008473ffffffffffffffffffffffffffffffffffffffff1673ffffffffffffffffffffffffffffffffffffffff1681526020019081526020016000206121d4565b9050919050565b6000600960009054906101000a900473ffffffffffffffffffffffffffffffffffffffff16905090565b6000438210610bcf576040517f08c379a0000000000000000000000000000000000000000000000000000000008152600401610bc690613326565b60405180910390fd5b610bda600883611ee8565b9050919050565b610be961197a565b73ffffffffffffffffffffffffffffffffffffffff16610c07610b61565b73ffffffffffffffffffffffffffffffffffffffff1614610c5d576040517f08c379a0000000000000000000000000000000000000000000000000000000008152600401610c5490613392565b60405180910390fd5b80600b60006101000a81548173ffffffffffffffffffffffffffffffffffffffff021916908373ffffffffffffffffffffffffffffffffffffffff16021790555050565b606060048054610cb090613191565b80601f0160208091040260200160405190810160405280929190818152602001828054610cdc90613191565b8015610d295780601f10610cfe57610100808354040283529160200191610d29565b820191906000526020600020905b815481529060010190602001808311610d0c57829003601f168201915b5050505050905090565b600080600760008473ffffffffffffffffffffffffffffffffffffffff1673ffffffffffffffffffffffffffffffffffffffff16815260200190815260200160002080549050905060008114610e1b57600760008473ffffffffffffffffffffffffffffffffffffffff1673ffffffffffffffffffffffffffffffffffffffff168152602001908152602001600020600182610dcf91906133b2565b81548110610de057610ddf6133e6565b5b9060005260206000200160000160049054906101000a90047bffffffffffffffffffffffffffffffffffffffffffffffffffffffff16610e1e565b60005b7bffffffffffffffffffffffffffffffffffffffffffffffffffffffff16915050919050565b60008060016000610e5361197a565b73ffffffffffffffffffffffffffffffffffffffff1673ffffffffffffffffffffffffffffffffffffffff16815260200190815260200160002060008573ffffffffffffffffffffffffffffffffffffffff1673ffffffffffffffffffffffffffffffffffffffff16815260200190815260200160002054905082811015610f10576040517f08c379a0000000000000000000000000000000000000000000000000000000008152600401610f0790613487565b60405180910390fd5b610f24610f1b61197a565b85858403611982565b600191505092915050565b6000610f43610f3c61197a565b8484611b4d565b6001905092915050565b600a5481565b83421115610f96576040517f08c379a0000000000000000000000000000000000000000000000000000000008152600401610f8d906134f3565b60405180910390fd5b6000610ff8610ff07fe48329057bfd03d55e49b547132e39cffd9c1820ad7b9d4c5307691425d15adf898989604051602001610fd59493929190613513565b604051602081830303815290604052805190602001206121e2565b8585856121fc565b905061100381612227565b8614611044576040517f08c379a000000000000000000000000000000000000000000000000000000000815260040161103b906135a4565b60405180910390fd5b61104e8188611ff4565b50505050505050565b8342111561109a576040517f08c379a000000000000000000000000000000000000000000000000000000000815260040161109190613610565b60405180910390fd5b60007f00000000000000000000000000000000000000000000000000000000000000008888886110c98c612227565b896040516020016110df96959493929190613630565b6040516020818303038152906040528051906020012090506000611102826121e2565b90506000611112828787876121fc565b90508973ffffffffffffffffffffffffffffffffffffffff168173ffffffffffffffffffffffffffffffffffffffff1614611182576040517f08c379a0000000000000000000000000000000000000000000000000000000008152600401611179906136dd565b60405180910390fd5b61118d8a8a8a611982565b50505050505050505050565b6000600160008473ffffffffffffffffffffffffffffffffffffffff1673ffffffffffffffffffffffffffffffffffffffff16815260200190815260200160002060008373ffffffffffffffffffffffffffffffffffffffff1673ffffffffffffffffffffffffffffffffffffffff16815260200190815260200160002054905092915050565b611228612af1565b600760008473ffffffffffffffffffffffffffffffffffffffff1673ffffffffffffffffffffffffffffffffffffffff1681526020019081526020016000208263ffffffff168154811061127f5761127e6133e6565b5b906000526020600020016040518060400160405290816000820160009054906101000a900463ffffffff1663ffffffff1663ffffffff1681526020016000820160049054906101000a90047bffffffffffffffffffffffffffffffffffffffffffffffffffffffff167bffffffffffffffffffffffffffffffffffffffffffffffffffffffff167bffffffffffffffffffffffffffffffffffffffffffffffffffffffff1681525050905092915050565b61133861197a565b73ffffffffffffffffffffffffffffffffffffffff16611356610b61565b73ffffffffffffffffffffffffffffffffffffffff16146113ac576040517f08c379a00000000000000000000000000000000000000000000000000000000081526004016113a390613392565b60405180910390fd5b600073ffffffffffffffffffffffffffffffffffffffff168173ffffffffffffffffffffffffffffffffffffffff16141561141c576040517f08c379a00000000000000000000000000000000000000000000000000000000081526004016114139061376f565b60405180910390fd5b6114258161210e565b50565b61143061197a565b73ffffffffffffffffffffffffffffffffffffffff1661144e610b61565b73ffffffffffffffffffffffffffffffffffffffff16146114a4576040517f08c379a000000000000000000000000000000000000000000000000000000000815260040161149b90613392565b60405180910390fd5b600073ffffffffffffffffffffffffffffffffffffffff16600b60009054906101000a900473ffffffffffffffffffffffffffffffffffffffff1673ffffffffffffffffffffffffffffffffffffffff161415611536576040517f08c379a000000000000000000000000000000000000000000000000000000000815260040161152d906137db565b60405180910390fd5b60001515600b60149054906101000a900460ff1615151461158c576040517f08c379a000000000000000000000000000000000000000000000000000000000815260040161158390613847565b60405180910390fd5b6115ba600b60009054906101000a900473ffffffffffffffffffffffffffffffffffffffff16600a54612285565b6001600b60146101000a81548160ff021916908315150217905550565b61166f82826040516024016115ed929190613867565b6040516020818303038152906040527f319af333000000000000000000000000000000000000000000000000000000007bffffffffffffffffffffffffffffffffffffffffffffffffffffffff19166020820180517bffffffffffffffffffffffffffffffffffffffffffffffffffffffff8381831617835250505050612293565b5050565b61167d8282611700565b6116856122bc565b7bffffffffffffffffffffffffffffffffffffffffffffffffffffffff166116ab6106dd565b11156116ec576040517f08c379a00000000000000000000000000000000000000000000000000000000081526004016116e390613909565b60405180910390fd5b6116fa6008611860836122e0565b50505050565b600073ffffffffffffffffffffffffffffffffffffffff168273ffffffffffffffffffffffffffffffffffffffff161415611770576040517f08c379a000000000000000000000000000000000000000000000000000000000815260040161176790613975565b60405180910390fd5b61177c60008383612558565b806002600082825461178e9190613284565b92505081905550806000808473ffffffffffffffffffffffffffffffffffffffff1673ffffffffffffffffffffffffffffffffffffffff16815260200190815260200160002060008282546117e39190613284565b925050819055508173ffffffffffffffffffffffffffffffffffffffff16600073ffffffffffffffffffffffffffffffffffffffff167fddf252ad1be2c89b69c2b068fc378daa952ba7f163c4a11628f55a4df523b3ef836040516118489190612d08565b60405180910390a361185c6000838361255d565b5050565b6000818361186e9190613284565b905092915050565b60007bffffffffffffffffffffffffffffffffffffffffffffffffffffffff80168211156118d9576040517f08c379a00000000000000000000000000000000000000000000000000000000081526004016118d090613a07565b60405180910390fd5b819050919050565b600063ffffffff801682111561192c576040517f08c379a000000000000000000000000000000000000000000000000000000000815260040161192390613a99565b60405180910390fd5b819050919050565b61193f83838361195f565b61195a61194b84610970565b61195484610970565b8361256d565b505050565b505050565b6000818361197291906133b2565b905092915050565b600033905090565b600073ffffffffffffffffffffffffffffffffffffffff168373ffffffffffffffffffffffffffffffffffffffff1614156119f2576040517f08c379a00000000000000000000000000000000000000000000000000000000081526004016119e990613b2b565b60405180910390fd5b600073ffffffffffffffffffffffffffffffffffffffff168273ffffffffffffffffffffffffffffffffffffffff161415611a62576040517f08c379a0000000000000000000000000000000000000000000000000000000008152600401611a5990613bbd565b60405180910390fd5b80600160008573ffffffffffffffffffffffffffffffffffffffff1673ffffffffffffffffffffffffffffffffffffffff16815260200190815260200160002060008473ffffffffffffffffffffffffffffffffffffffff1673ffffffffffffffffffffffffffffffffffffffff168152602001908152602001600020819055508173ffffffffffffffffffffffffffffffffffffffff168373ffffffffffffffffffffffffffffffffffffffff167f8c5be1e5ebec7d5bd14f71427d1e84f3dd0314c0f7b2291e5b200ac8c7c3b92583604051611b409190612d08565b60405180910390a3505050565b600073ffffffffffffffffffffffffffffffffffffffff168373ffffffffffffffffffffffffffffffffffffffff161415611bbd576040517f08c379a0000000000000000000000000000000000000000000000000000000008152600401611bb490613c4f565b60405180910390fd5b600073ffffffffffffffffffffffffffffffffffffffff168273ffffffffffffffffffffffffffffffffffffffff161415611c2d576040517f08c379a0000000000000000000000000000000000000000000000000000000008152600401611c2490613ce1565b60405180910390fd5b611c38838383612558565b60008060008573ffffffffffffffffffffffffffffffffffffffff1673ffffffffffffffffffffffffffffffffffffffff16815260200190815260200160002054905081811015611cbe576040517f08c379a0000000000000000000000000000000000000000000000000000000008152600401611cb590613d73565b60405180910390fd5b8181036000808673ffffffffffffffffffffffffffffffffffffffff1673ffffffffffffffffffffffffffffffffffffffff16815260200190815260200160002081905550816000808573ffffffffffffffffffffffffffffffffffffffff1673ffffffffffffffffffffffffffffffffffffffff1681526020019081526020016000206000828254611d519190613284565b925050819055508273ffffffffffffffffffffffffffffffffffffffff168473ffffffffffffffffffffffffffffffffffffffff167fddf252ad1be2c89b69c2b068fc378daa952ba7f163c4a11628f55a4df523b3ef84604051611db59190612d08565b60405180910390a3611dc884848461255d565b50505050565b60007f000000000000000000000000000000000000000000000000000000000000000073ffffffffffffffffffffffffffffffffffffffff163073ffffffffffffffffffffffffffffffffffffffff16148015611e4a57507f000000000000000000000000000000000000000000000000000000000000000046145b15611e77577f00000000000000000000000000000000000000000000000000000000000000009050611ee5565b611ee27f00000000000000000000000000000000000000000000000000000000000000007f00000000000000000000000000000000000000000000000000000000000000007f0000000000000000000000000000000000000000000000000000000000000000612766565b90505b90565b6000808380549050905060005b81811015611f67576000611f0982846127a0565b905084868281548110611f1f57611f1e6133e6565b5b9060005260206000200160000160009054906101000a900463ffffffff1663ffffffff161115611f5157809250611f61565b600181611f5e9190613284565b91505b50611ef5565b60008214611fc95784600183611f7d91906133b2565b81548110611f8e57611f8d6133e6565b5b9060005260206000200160000160049054906101000a90047bffffffffffffffffffffffffffffffffffffffffffffffffffffffff16611fcc565b60005b7bffffffffffffffffffffffffffffffffffffffffffffffffffffffff169250505092915050565b6000611fff83610970565b9050600061200c84610a41565b905082600660008673ffffffffffffffffffffffffffffffffffffffff1673ffffffffffffffffffffffffffffffffffffffff16815260200190815260200160002060006101000a81548173ffffffffffffffffffffffffffffffffffffffff021916908373ffffffffffffffffffffffffffffffffffffffff1602179055508273ffffffffffffffffffffffffffffffffffffffff168273ffffffffffffffffffffffffffffffffffffffff168573ffffffffffffffffffffffffffffffffffffffff167f3134e8a2e6d97e929a7e54011ea5485d7d196dd5f0ba4d4ef95803e8e3fc257f60405160405180910390a461210882848361256d565b50505050565b6000600960009054906101000a900473ffffffffffffffffffffffffffffffffffffffff16905081600960006101000a81548173ffffffffffffffffffffffffffffffffffffffff021916908373ffffffffffffffffffffffffffffffffffffffff1602179055508173ffffffffffffffffffffffffffffffffffffffff168173ffffffffffffffffffffffffffffffffffffffff167f8be0079c531659141344cd1fd0a4f28419497f9722a3daafe3b4186f6b6457e060405160405180910390a35050565b600081600001549050919050565b60006121f56121ef611dce565b836127c6565b9050919050565b600080600061220d878787876127f9565b9150915061221a81612906565b8192505050949350505050565b600080600560008473ffffffffffffffffffffffffffffffffffffffff1673ffffffffffffffffffffffffffffffffffffffff1681526020019081526020016000209050612274816121d4565b915061227f81612adb565b50919050565b61228f8282611673565b5050565b60008151905060006a636f6e736f6c652e6c6f679050602083016000808483855afa5050505050565b60007bffffffffffffffffffffffffffffffffffffffffffffffffffffffff905090565b6000806000858054905090506000811461234e578560018261230291906133b2565b81548110612313576123126133e6565b5b9060005260206000200160000160049054906101000a90047bffffffffffffffffffffffffffffffffffffffffffffffffffffffff16612351565b60005b7bffffffffffffffffffffffffffffffffffffffffffffffffffffffff16925061237f83858763ffffffff16565b91506000811180156123d25750438660018361239b91906133b2565b815481106123ac576123ab6133e6565b5b9060005260206000200160000160009054906101000a900463ffffffff1663ffffffff16145b1561245f576123e082611876565b866001836123ee91906133b2565b815481106123ff576123fe6133e6565b5b9060005260206000200160000160046101000a8154817bffffffffffffffffffffffffffffffffffffffffffffffffffffffff02191690837bffffffffffffffffffffffffffffffffffffffffffffffffffffffff16021790555061254f565b856040518060400160405280612474436118e1565b63ffffffff16815260200161248885611876565b7bffffffffffffffffffffffffffffffffffffffffffffffffffffffff168152509080600181540180825580915050600190039060005260206000200160009091909190915060008201518160000160006101000a81548163ffffffff021916908363ffffffff16021790555060208201518160000160046101000a8154817bffffffffffffffffffffffffffffffffffffffffffffffffffffffff02191690837bffffffffffffffffffffffffffffffffffffffffffffffffffffffff16021790555050505b50935093915050565b505050565b612568838383611934565b505050565b8173ffffffffffffffffffffffffffffffffffffffff168373ffffffffffffffffffffffffffffffffffffffff16141580156125a95750600081115b1561276157600073ffffffffffffffffffffffffffffffffffffffff168373ffffffffffffffffffffffffffffffffffffffff161461268757600080612630600760008773ffffffffffffffffffffffffffffffffffffffff1673ffffffffffffffffffffffffffffffffffffffff168152602001908152602001600020611964856122e0565b915091508473ffffffffffffffffffffffffffffffffffffffff167fdec2bacdd2f05b59de34da9b523dff8be42e5e38e818c82fdb0bae774387a724838360405161267c929190613d93565b60405180910390a250505b600073ffffffffffffffffffffffffffffffffffffffff168273ffffffffffffffffffffffffffffffffffffffff161461276057600080612709600760008673ffffffffffffffffffffffffffffffffffffffff1673ffffffffffffffffffffffffffffffffffffffff168152602001908152602001600020611860856122e0565b915091508373ffffffffffffffffffffffffffffffffffffffff167fdec2bacdd2f05b59de34da9b523dff8be42e5e38e818c82fdb0bae774387a7248383604051612755929190613d93565b60405180910390a250505b5b505050565b60008383834630604051602001612781959493929190613dbc565b6040516020818303038152906040528051906020012090509392505050565b600060028284186127b19190613e3e565b8284166127be9190613284565b905092915050565b600082826040516020016127db929190613ee7565b60405160208183030381529060405280519060200120905092915050565b6000807f7fffffffffffffffffffffffffffffff5d576e7357a4501ddfe92f46681b20a08360001c11156128345760006003915091506128fd565b601b8560ff161415801561284c5750601c8560ff1614155b1561285e5760006004915091506128fd565b6000600187878787604051600081526020016040526040516128839493929190613f1e565b6020604051602081039080840390855afa1580156128a5573d6000803e3d6000fd5b505050602060405103519050600073ffffffffffffffffffffffffffffffffffffffff168173ffffffffffffffffffffffffffffffffffffffff1614156128f4576000600192509250506128fd565b80600092509250505b94509492505050565b6000600481111561291a57612919613f63565b5b81600481111561292d5761292c613f63565b5b141561293857612ad8565b6001600481111561294c5761294b613f63565b5b81600481111561295f5761295e613f63565b5b14156129a0576040517f08c379a000000000000000000000000000000000000000000000000000000000815260040161299790613fde565b60405180910390fd5b600260048111156129b4576129b3613f63565b5b8160048111156129c7576129c6613f63565b5b1415612a08576040517f08c379a00000000000000000000000000000000000000000000000000000000081526004016129ff9061404a565b60405180910390fd5b60036004811115612a1c57612a1b613f63565b5b816004811115612a2f57612a2e613f63565b5b1415612a70576040517f08c379a0000000000000000000000000000000000000000000000000000000008152600401612a67906140dc565b60405180910390fd5b600480811115612a8357612a82613f63565b5b816004811115612a9657612a95613f63565b5b1415612ad7576040517f08c379a0000000000000000000000000000000000000000000000000000000008152600401612ace9061416e565b60405180910390fd5b5b50565b6001816000016000828254019250508190555050565b6040518060400160405280600063ffffffff16815260200160007bffffffffffffffffffffffffffffffffffffffffffffffffffffffff1681525090565b600081519050919050565b600082825260208201905092915050565b60005b83811015612b69578082015181840152602081019050612b4e565b83811115612b78576000848401525b50505050565b6000601f19601f8301169050919050565b6000612b9a82612b2f565b612ba48185612b3a565b9350612bb4818560208601612b4b565b612bbd81612b7e565b840191505092915050565b60006020820190508181036000830152612be28184612b8f565b905092915050565b600080fd5b600073ffffffffffffffffffffffffffffffffffffffff82169050919050565b6000612c1a82612bef565b9050919050565b612c2a81612c0f565b8114612c3557600080fd5b50565b600081359050612c4781612c21565b92915050565b6000819050919050565b612c6081612c4d565b8114612c6b57600080fd5b50565b600081359050612c7d81612c57565b92915050565b60008060408385031215612c9a57612c99612bea565b5b6000612ca885828601612c38565b9250506020612cb985828601612c6e565b9150509250929050565b60008115159050919050565b612cd881612cc3565b82525050565b6000602082019050612cf36000830184612ccf565b92915050565b612d0281612c4d565b82525050565b6000602082019050612d1d6000830184612cf9565b92915050565b600080600060608486031215612d3c57612d3b612bea565b5b6000612d4a86828701612c38565b9350506020612d5b86828701612c38565b9250506040612d6c86828701612c6e565b9150509250925092565b600060ff82169050919050565b612d8c81612d76565b82525050565b6000602082019050612da76000830184612d83565b92915050565b6000819050919050565b612dc081612dad565b82525050565b6000602082019050612ddb6000830184612db7565b92915050565b612dea81612c0f565b82525050565b6000602082019050612e056000830184612de1565b92915050565b600060208284031215612e2157612e20612bea565b5b6000612e2f84828501612c38565b91505092915050565b600063ffffffff82169050919050565b612e5181612e38565b82525050565b6000602082019050612e6c6000830184612e48565b92915050565b600060208284031215612e8857612e87612bea565b5b6000612e9684828501612c6e565b91505092915050565b612ea881612d76565b8114612eb357600080fd5b50565b600081359050612ec581612e9f565b92915050565b612ed481612dad565b8114612edf57600080fd5b50565b600081359050612ef181612ecb565b92915050565b60008060008060008060c08789031215612f1457612f13612bea565b5b6000612f2289828a01612c38565b9650506020612f3389828a01612c6e565b9550506040612f4489828a01612c6e565b9450506060612f5589828a01612eb6565b9350506080612f6689828a01612ee2565b92505060a0612f7789828a01612ee2565b9150509295509295509295565b600080600080600080600060e0888a031215612fa357612fa2612bea565b5b6000612fb18a828b01612c38565b9750506020612fc28a828b01612c38565b9650506040612fd38a828b01612c6e565b9550506060612fe48a828b01612c6e565b9450506080612ff58a828b01612eb6565b93505060a06130068a828b01612ee2565b92505060c06130178a828b01612ee2565b91505092959891949750929550565b6000806040838503121561303d5761303c612bea565b5b600061304b85828601612c38565b925050602061305c85828601612c38565b9150509250929050565b61306f81612e38565b811461307a57600080fd5b50565b60008135905061308c81613066565b92915050565b600080604083850312156130a9576130a8612bea565b5b60006130b785828601612c38565b92505060206130c88582860161307d565b9150509250929050565b6130db81612e38565b82525050565b60007bffffffffffffffffffffffffffffffffffffffffffffffffffffffff82169050919050565b613112816130e1565b82525050565b60408201600082015161312e60008501826130d2565b5060208201516131416020850182613109565b50505050565b600060408201905061315c6000830184613118565b92915050565b7f4e487b7100000000000000000000000000000000000000000000000000000000600052602260045260246000fd5b600060028204905060018216806131a957607f821691505b602082108114156131bd576131bc613162565b5b50919050565b7f45524332303a207472616e7366657220616d6f756e742065786365656473206160008201527f6c6c6f77616e6365000000000000000000000000000000000000000000000000602082015250565b600061321f602883612b3a565b915061322a826131c3565b604082019050919050565b6000602082019050818103600083015261324e81613212565b9050919050565b7f4e487b7100000000000000000000000000000000000000000000000000000000600052601160045260246000fd5b600061328f82612c4d565b915061329a83612c4d565b9250827fffffffffffffffffffffffffffffffffffffffffffffffffffffffffffffffff038211156132cf576132ce613255565b5b828201905092915050565b7f4552433230566f7465733a20626c6f636b206e6f7420796574206d696e656400600082015250565b6000613310601f83612b3a565b915061331b826132da565b602082019050919050565b6000602082019050818103600083015261333f81613303565b9050919050565b7f4f776e61626c653a2063616c6c6572206973206e6f7420746865206f776e6572600082015250565b600061337c602083612b3a565b915061338782613346565b602082019050919050565b600060208201905081810360008301526133ab8161336f565b9050919050565b60006133bd82612c4d565b91506133c883612c4d565b9250828210156133db576133da613255565b5b828203905092915050565b7f4e487b7100000000000000000000000000000000000000000000000000000000600052603260045260246000fd5b7f45524332303a2064656372656173656420616c6c6f77616e63652062656c6f7760008201527f207a65726f000000000000000000000000000000000000000000000000000000602082015250565b6000613471602583612b3a565b915061347c82613415565b604082019050919050565b600060208201905081810360008301526134a081613464565b9050919050565b7f4552433230566f7465733a207369676e61747572652065787069726564000000600082015250565b60006134dd601d83612b3a565b91506134e8826134a7565b602082019050919050565b6000602082019050818103600083015261350c816134d0565b9050919050565b60006080820190506135286000830187612db7565b6135356020830186612de1565b6135426040830185612cf9565b61354f6060830184612cf9565b95945050505050565b7f4552433230566f7465733a20696e76616c6964206e6f6e636500000000000000600082015250565b600061358e601983612b3a565b915061359982613558565b602082019050919050565b600060208201905081810360008301526135bd81613581565b9050919050565b7f45524332305065726d69743a206578706972656420646561646c696e65000000600082015250565b60006135fa601d83612b3a565b9150613605826135c4565b602082019050919050565b60006020820190508181036000830152613629816135ed565b9050919050565b600060c0820190506136456000830189612db7565b6136526020830188612de1565b61365f6040830187612de1565b61366c6060830186612cf9565b6136796080830185612cf9565b61368660a0830184612cf9565b979650505050505050565b7f45524332305065726d69743a20696e76616c6964207369676e61747572650000600082015250565b60006136c7601e83612b3a565b91506136d282613691565b602082019050919050565b600060208201905081810360008301526136f6816136ba565b9050919050565b7f4f776e61626c653a206e6577206f776e657220697320746865207a65726f206160008201527f6464726573730000000000000000000000000000000000000000000000000000602082015250565b6000613759602683612b3a565b9150613764826136fd565b604082019050919050565b600060208201905081810360008301526137888161374c565b9050919050565b7f41646472657373206973203020616464726573732e0000000000000000000000600082015250565b60006137c5601583612b3a565b91506137d08261378f565b602082019050919050565b600060208201905081810360008301526137f4816137b8565b9050919050565b7f416c7265616479206d696e7465642e0000000000000000000000000000000000600082015250565b6000613831600f83612b3a565b915061383c826137fb565b602082019050919050565b6000602082019050818103600083015261386081613824565b9050919050565b600060408201905081810360008301526138818185612b8f565b90506138906020830184612de1565b9392505050565b7f4552433230566f7465733a20746f74616c20737570706c79207269736b73206f60008201527f766572666c6f77696e6720766f74657300000000000000000000000000000000602082015250565b60006138f3603083612b3a565b91506138fe82613897565b604082019050919050565b60006020820190508181036000830152613922816138e6565b9050919050565b7f45524332303a206d696e7420746f20746865207a65726f206164647265737300600082015250565b600061395f601f83612b3a565b915061396a82613929565b602082019050919050565b6000602082019050818103600083015261398e81613952565b9050919050565b7f53616665436173743a2076616c756520646f65736e27742066697420696e203260008201527f3234206269747300000000000000000000000000000000000000000000000000602082015250565b60006139f1602783612b3a565b91506139fc82613995565b604082019050919050565b60006020820190508181036000830152613a20816139e4565b9050919050565b7f53616665436173743a2076616c756520646f65736e27742066697420696e203360008201527f3220626974730000000000000000000000000000000000000000000000000000602082015250565b6000613a83602683612b3a565b9150613a8e82613a27565b604082019050919050565b60006020820190508181036000830152613ab281613a76565b9050919050565b7f45524332303a20617070726f76652066726f6d20746865207a65726f2061646460008201527f7265737300000000000000000000000000000000000000000000000000000000602082015250565b6000613b15602483612b3a565b9150613b2082613ab9565b604082019050919050565b60006020820190508181036000830152613b4481613b08565b9050919050565b7f45524332303a20617070726f766520746f20746865207a65726f20616464726560008201527f7373000000000000000000000000000000000000000000000000000000000000602082015250565b6000613ba7602283612b3a565b9150613bb282613b4b565b604082019050919050565b60006020820190508181036000830152613bd681613b9a565b9050919050565b7f45524332303a207472616e736665722066726f6d20746865207a65726f20616460008201527f6472657373000000000000000000000000000000000000000000000000000000602082015250565b6000613c39602583612b3a565b9150613c4482613bdd565b604082019050919050565b60006020820190508181036000830152613c6881613c2c565b9050919050565b7f45524332303a207472616e7366657220746f20746865207a65726f206164647260008201527f6573730000000000000000000000000000000000000000000000000000000000602082015250565b6000613ccb602383612b3a565b9150613cd682613c6f565b604082019050919050565b60006020820190508181036000830152613cfa81613cbe565b9050919050565b7f45524332303a207472616e7366657220616d6f756e742065786365656473206260008201527f616c616e63650000000000000000000000000000000000000000000000000000602082015250565b6000613d5d602683612b3a565b9150613d6882613d01565b604082019050919050565b60006020820190508181036000830152613d8c81613d50565b9050919050565b6000604082019050613da86000830185612cf9565b613db56020830184612cf9565b9392505050565b600060a082019050613dd16000830188612db7565b613dde6020830187612db7565b613deb6040830186612db7565b613df86060830185612cf9565b613e056080830184612de1565b9695505050505050565b7f4e487b7100000000000000000000000000000000000000000000000000000000600052601260045260246000fd5b6000613e4982612c4d565b9150613e5483612c4d565b925082613e6457613e63613e0f565b5b828204905092915050565b600081905092915050565b7f1901000000000000000000000000000000000000000000000000000000000000600082015250565b6000613eb0600283613e6f565b9150613ebb82613e7a565b600282019050919050565b6000819050919050565b613ee1613edc82612dad565b613ec6565b82525050565b6000613ef282613ea3565b9150613efe8285613ed0565b602082019150613f0e8284613ed0565b6020820191508190509392505050565b6000608082019050613f336000830187612db7565b613f406020830186612d83565b613f4d6040830185612db7565b613f5a6060830184612db7565b95945050505050565b7f4e487b7100000000000000000000000000000000000000000000000000000000600052602160045260246000fd5b7f45434453413a20696e76616c6964207369676e61747572650000000000000000600082015250565b6000613fc8601883612b3a565b9150613fd382613f92565b602082019050919050565b60006020820190508181036000830152613ff781613fbb565b9050919050565b7f45434453413a20696e76616c6964207369676e6174757265206c656e67746800600082015250565b6000614034601f83612b3a565b915061403f82613ffe565b602082019050919050565b6000602082019050818103600083015261406381614027565b9050919050565b7f45434453413a20696e76616c6964207369676e6174757265202773272076616c60008201527f7565000000000000000000000000000000000000000000000000000000000000602082015250565b60006140c6602283612b3a565b91506140d18261406a565b604082019050919050565b600060208201905081810360008301526140f5816140b9565b9050919050565b7f45434453413a20696e76616c6964207369676e6174757265202776272076616c60008201527f7565000000000000000000000000000000000000000000000000000000000000602082015250565b6000614158602283612b3a565b9150614163826140fc565b604082019050919050565b600060208201905081810360008301526141878161414b565b905091905056fea26469706673582212207549d87c7e3b81a576e96b9c4124db84745e9912a57980de01966d6d9904b24f64736f6c63430008090033a264697066735822122049dea6d2903339eb9a003416477a606b07f8f101cba3490212f0900bc92d9f5a64736f6c63430008090033",
  "linkReferences": {},
  "deployedLinkReferences": {}
}