{
  "_format": "hh-sol-artifact-1",
  "contractName": "CreateDAOTimelock",
  "sourceName": "contracts/factories/CreateDAOTimelock.sol",
  "abi": [
    {
      "inputs": [
        {
          "internalType": "uint256",
          "name": "_minDelay",
          "type": "uint256"
        },
        {
          "internalType": "address",
          "name": "_daoFactory",
          "type": "address"
        }
      ],
      "name": "createDAOTimelock",
      "outputs": [
        {
          "internalType": "address",
          "name": "",
          "type": "address"
        }
      ],
      "stateMutability": "nonpayable",
      "type": "function"
    }
  ],
  "bytecode": "0x608060405234801561001057600080fd5b50613e61806100206000396000f3fe60806040523480156200001157600080fd5b50600436106200002e5760003560e01c806359c62e5a1462000033575b600080fd5b6200005160048036038101906200004b9190620003e6565b62000069565b6040516200006091906200043e565b60405180910390f35b60008083600067ffffffffffffffff8111156200008b576200008a6200045b565b5b604051908082528060200260200182016040528015620000ba5781602001602082028036833780820191505090505b50600067ffffffffffffffff811115620000d957620000d86200045b565b5b604051908082528060200260200182016040528015620001085781602001602082028036833780820191505090505b50604051620001179062000333565b620001259392919062000569565b604051809103906000f08015801562000142573d6000803e3d6000fd5b5090508073ffffffffffffffffffffffffffffffffffffffff16632f2ff15d8273ffffffffffffffffffffffffffffffffffffffff16630d3cf6fc6040518163ffffffff1660e01b815260040160206040518083038186803b158015620001a857600080fd5b505afa158015620001bd573d6000803e3d6000fd5b505050506040513d601f19601f82011682018060405250810190620001e39190620005ef565b856040518363ffffffff1660e01b81526004016200020392919062000632565b600060405180830381600087803b1580156200021e57600080fd5b505af115801562000233573d6000803e3d6000fd5b505050508073ffffffffffffffffffffffffffffffffffffffff1663d547741f8273ffffffffffffffffffffffffffffffffffffffff16630d3cf6fc6040518163ffffffff1660e01b815260040160206040518083038186803b1580156200029a57600080fd5b505afa158015620002af573d6000803e3d6000fd5b505050506040513d601f19601f82011682018060405250810190620002d59190620005ef565b306040518363ffffffff1660e01b8152600401620002f592919062000632565b600060405180830381600087803b1580156200031057600080fd5b505af115801562000325573d6000803e3d6000fd5b505050508091505092915050565b6137cc806200066083390190565b600080fd5b6000819050919050565b6200035b8162000346565b81146200036757600080fd5b50565b6000813590506200037b8162000350565b92915050565b600073ffffffffffffffffffffffffffffffffffffffff82169050919050565b6000620003ae8262000381565b9050919050565b620003c081620003a1565b8114620003cc57600080fd5b50565b600081359050620003e081620003b5565b92915050565b600080604083850312156200040057620003ff62000341565b5b600062000410858286016200036a565b92505060206200042385828601620003cf565b9150509250929050565b6200043881620003a1565b82525050565b60006020820190506200045560008301846200042d565b92915050565b7f4e487b7100000000000000000000000000000000000000000000000000000000600052604160045260246000fd5b620004958162000346565b82525050565b600081519050919050565b600082825260208201905092915050565b6000819050602082019050919050565b620004d281620003a1565b82525050565b6000620004e68383620004c7565b60208301905092915050565b6000602082019050919050565b60006200050c826200049b565b620005188185620004a6565b93506200052583620004b7565b8060005b838110156200055c578151620005408882620004d8565b97506200054d83620004f2565b92505060018101905062000529565b5085935050505092915050565b60006060820190506200058060008301866200048a565b8181036020830152620005948185620004ff565b90508181036040830152620005aa8184620004ff565b9050949350505050565b6000819050919050565b620005c981620005b4565b8114620005d557600080fd5b50565b600081519050620005e981620005be565b92915050565b60006020828403121562000608576200060762000341565b5b60006200061884828501620005d8565b91505092915050565b6200062c81620005b4565b82525050565b600060408201905062000649600083018562000621565b6200065860208301846200042d565b939250505056fe60806040523480156200001157600080fd5b50604051620037cc380380620037cc8339818101604052810190620000379190620007ef565b8282826200006c7f5f58e3a2316349923ce3780f8d587db2d72378aed66a8261c916544fa6846ca580620002ff60201b60201c565b620000be7fb09aa5aeb3702cfd50b6b62bc4532604938f21248a27a1d5ca736082b6819cc17f5f58e3a2316349923ce3780f8d587db2d72378aed66a8261c916544fa6846ca5620002ff60201b60201c565b620001107fd8aa0f3194971a2a116679f7c2090f6939c8d4e01a2a8d7e41d55e5351469e637f5f58e3a2316349923ce3780f8d587db2d72378aed66a8261c916544fa6846ca5620002ff60201b60201c565b620001517f5f58e3a2316349923ce3780f8d587db2d72378aed66a8261c916544fa6846ca5620001456200036260201b60201c565b6200036a60201b60201c565b620001837f5f58e3a2316349923ce3780f8d587db2d72378aed66a8261c916544fa6846ca5306200036a60201b60201c565b60005b8251811015620001f357620001df7fb09aa5aeb3702cfd50b6b62bc4532604938f21248a27a1d5ca736082b6819cc1848381518110620001cb57620001ca62000889565b5b60200260200101516200036a60201b60201c565b80620001eb90620008e7565b905062000186565b5060005b81518110156200026457620002507fd8aa0f3194971a2a116679f7c2090f6939c8d4e01a2a8d7e41d55e5351469e638383815181106200023c576200023b62000889565b5b60200260200101516200036a60201b60201c565b806200025c90620008e7565b9050620001f7565b50826002819055507f11c24f4ead16507c69ac467fbd5e4eed5fb5c699626d2cc6d66421df253886d5600084604051620002a092919062000993565b60405180910390a1505050620002f66040518060400160405280601a81526020017f436f6e7374727563746f722069732072756e6e696e672e2e2e2e0000000000008152506200038060201b62000f201760201c565b50505062000a77565b600062000312836200042360201b60201c565b905081600080858152602001908152602001600020600101819055508181847fbd79b86ffe0ab8e8776151514217cd7cacd52c909f66475c3af44e129f0b00ff60405160405180910390a4505050565b600033905090565b6200037c82826200044260201b60201c565b5050565b620004208160405160240162000397919062000a53565b6040516020818303038152906040527f41304fac000000000000000000000000000000000000000000000000000000007bffffffffffffffffffffffffffffffffffffffffffffffffffffffff19166020820180517bffffffffffffffffffffffffffffffffffffffffffffffffffffffff83818316178352505050506200053360201b60201c565b50565b6000806000838152602001908152602001600020600101549050919050565b6200045482826200055c60201b60201c565b6200052f57600160008084815260200190815260200160002060000160008373ffffffffffffffffffffffffffffffffffffffff1673ffffffffffffffffffffffffffffffffffffffff16815260200190815260200160002060006101000a81548160ff021916908315150217905550620004d46200036260201b60201c565b73ffffffffffffffffffffffffffffffffffffffff168173ffffffffffffffffffffffffffffffffffffffff16837f2f8788117e7eff1d82e926ec794901d17c78024a50270940304540a733656f0d60405160405180910390a45b5050565b60008151905060006a636f6e736f6c652e6c6f679050602083016000808483855afa5050505050565b600080600084815260200190815260200160002060000160008373ffffffffffffffffffffffffffffffffffffffff1673ffffffffffffffffffffffffffffffffffffffff16815260200190815260200160002060009054906101000a900460ff16905092915050565b6000604051905090565b600080fd5b600080fd5b6000819050919050565b620005ef81620005da565b8114620005fb57600080fd5b50565b6000815190506200060f81620005e4565b92915050565b600080fd5b6000601f19601f8301169050919050565b7f4e487b7100000000000000000000000000000000000000000000000000000000600052604160045260246000fd5b62000665826200061a565b810181811067ffffffffffffffff821117156200068757620006866200062b565b5b80604052505050565b60006200069c620005c6565b9050620006aa82826200065a565b919050565b600067ffffffffffffffff821115620006cd57620006cc6200062b565b5b602082029050602081019050919050565b600080fd5b600073ffffffffffffffffffffffffffffffffffffffff82169050919050565b60006200071082620006e3565b9050919050565b620007228162000703565b81146200072e57600080fd5b50565b600081519050620007428162000717565b92915050565b60006200075f6200075984620006af565b62000690565b90508083825260208201905060208402830185811115620007855762000784620006de565b5b835b81811015620007b257806200079d888262000731565b84526020840193505060208101905062000787565b5050509392505050565b600082601f830112620007d457620007d362000615565b5b8151620007e684826020860162000748565b91505092915050565b6000806000606084860312156200080b576200080a620005d0565b5b60006200081b86828701620005fe565b935050602084015167ffffffffffffffff8111156200083f576200083e620005d5565b5b6200084d86828701620007bc565b925050604084015167ffffffffffffffff811115620008715762000870620005d5565b5b6200087f86828701620007bc565b9150509250925092565b7f4e487b7100000000000000000000000000000000000000000000000000000000600052603260045260246000fd5b7f4e487b7100000000000000000000000000000000000000000000000000000000600052601160045260246000fd5b6000620008f482620005da565b91507fffffffffffffffffffffffffffffffffffffffffffffffffffffffffffffffff8214156200092a5762000929620008b8565b5b600182019050919050565b6000819050919050565b6000819050919050565b60006200096a620009646200095e8462000935565b6200093f565b620005da565b9050919050565b6200097c8162000949565b82525050565b6200098d81620005da565b82525050565b6000604082019050620009aa600083018562000971565b620009b9602083018462000982565b9392505050565b600081519050919050565b600082825260208201905092915050565b60005b83811015620009fc578082015181840152602081019050620009df565b8381111562000a0c576000848401525b50505050565b600062000a1f82620009c0565b62000a2b8185620009cb565b935062000a3d818560208601620009dc565b62000a48816200061a565b840191505092915050565b6000602082019050818103600083015262000a6f818462000a12565b905092915050565b612d458062000a876000396000f3fe60806040526004361061014f5760003560e01c806364d62353116100b6578063b1c5f4271161006f578063b1c5f427146104d8578063c4d252f514610515578063d45c44351461053e578063d547741f1461057b578063e38335e5146105a4578063f27a0c92146105c057610156565b806364d62353146103b65780638065657f146103df5780638f2a0bb01461041c5780638f61f4f51461044557806391d1485414610470578063a217fddf146104ad57610156565b8063248a9ca311610108578063248a9ca3146102705780632ab0f529146102ad5780632f2ff15d146102ea57806331d507501461031357806336568abe14610350578063584b153e1461037957610156565b806301d5062a1461015b57806301ffc9a71461018457806307bd0265146101c15780630d3cf6fc146101ec578063134008d31461021757806313bc9f201461023357610156565b3661015657005b600080fd5b34801561016757600080fd5b50610182600480360381019061017d91906118dd565b6105eb565b005b34801561019057600080fd5b506101ab60048036038101906101a691906119e4565b610688565b6040516101b89190611a2c565b60405180910390f35b3480156101cd57600080fd5b506101d6610702565b6040516101e39190611a56565b60405180910390f35b3480156101f857600080fd5b50610201610726565b60405161020e9190611a56565b60405180910390f35b610231600480360381019061022c9190611a71565b61074a565b005b34801561023f57600080fd5b5061025a60048036038101906102559190611b0b565b6107ca565b6040516102679190611a2c565b60405180910390f35b34801561027c57600080fd5b5061029760048036038101906102929190611b0b565b6107f0565b6040516102a49190611a56565b60405180910390f35b3480156102b957600080fd5b506102d460048036038101906102cf9190611b0b565b61080f565b6040516102e19190611a2c565b60405180910390f35b3480156102f657600080fd5b50610311600480360381019061030c9190611b38565b610824565b005b34801561031f57600080fd5b5061033a60048036038101906103359190611b0b565b61084d565b6040516103479190611a2c565b60405180910390f35b34801561035c57600080fd5b5061037760048036038101906103729190611b38565b610861565b005b34801561038557600080fd5b506103a0600480360381019061039b9190611b0b565b6108e4565b6040516103ad9190611a2c565b60405180910390f35b3480156103c257600080fd5b506103dd60048036038101906103d89190611b78565b6108f9565b005b3480156103eb57600080fd5b5061040660048036038101906104019190611a71565b6109ac565b6040516104139190611a56565b60405180910390f35b34801561042857600080fd5b50610443600480360381019061043e9190611ca7565b6109eb565b005b34801561045157600080fd5b5061045a610b9e565b6040516104679190611a56565b60405180910390f35b34801561047c57600080fd5b5061049760048036038101906104929190611b38565b610bc2565b6040516104a49190611a2c565b60405180910390f35b3480156104b957600080fd5b506104c2610c2c565b6040516104cf9190611a56565b60405180910390f35b3480156104e457600080fd5b506104ff60048036038101906104fa9190611d96565b610c33565b60405161050c9190611a56565b60405180910390f35b34801561052157600080fd5b5061053c60048036038101906105379190611b0b565b610c78565b005b34801561054a57600080fd5b5061056560048036038101906105609190611b0b565b610d3a565b6040516105729190611e81565b60405180910390f35b34801561058757600080fd5b506105a2600480360381019061059d9190611b38565b610d57565b005b6105be60048036038101906105b99190611d96565b610d80565b005b3480156105cc57600080fd5b506105d5610f16565b6040516105e29190611e81565b60405180910390f35b7fb09aa5aeb3702cfd50b6b62bc4532604938f21248a27a1d5ca736082b6819cc161061d81610618610fb9565b610fc1565b600061062d8989898989896109ac565b9050610639818461105e565b6000817f4cf4410cc57040e44862ef0f45f3dd5a5e02db8eb8add648d4b0e236f1d07dca8b8b8b8b8b8a60405161067596959493929190611f09565b60405180910390a3505050505050505050565b60007f7965db0b000000000000000000000000000000000000000000000000000000007bffffffffffffffffffffffffffffffffffffffffffffffffffffffff1916827bffffffffffffffffffffffffffffffffffffffffffffffffffffffff191614806106fb57506106fa82611118565b5b9050919050565b7fd8aa0f3194971a2a116679f7c2090f6939c8d4e01a2a8d7e41d55e5351469e6381565b7f5f58e3a2316349923ce3780f8d587db2d72378aed66a8261c916544fa6846ca581565b7fd8aa0f3194971a2a116679f7c2090f6939c8d4e01a2a8d7e41d55e5351469e63610776816000610bc2565b61078c5761078b81610786610fb9565b610fc1565b5b600061079c8888888888886109ac565b90506107a88185611182565b6107b78160008a8a8a8a611223565b6107c08161131b565b5050505050505050565b6000806107d683610d3a565b90506001811180156107e85750428111155b915050919050565b6000806000838152602001908152602001600020600101549050919050565b6000600161081c83610d3a565b149050919050565b61082d826107f0565b61083e81610839610fb9565b610fc1565b610848838361137e565b505050565b60008061085983610d3a565b119050919050565b610869610fb9565b73ffffffffffffffffffffffffffffffffffffffff168173ffffffffffffffffffffffffffffffffffffffff16146108d6576040517f08c379a00000000000000000000000000000000000000000000000000000000081526004016108cd90611fe8565b60405180910390fd5b6108e0828261145e565b5050565b600060016108f183610d3a565b119050919050565b3073ffffffffffffffffffffffffffffffffffffffff163373ffffffffffffffffffffffffffffffffffffffff1614610967576040517f08c379a000000000000000000000000000000000000000000000000000000000815260040161095e9061207a565b60405180910390fd5b7f11c24f4ead16507c69ac467fbd5e4eed5fb5c699626d2cc6d66421df253886d56002548260405161099a92919061209a565b60405180910390a18060028190555050565b60008686868686866040516020016109c9969594939291906120c3565b6040516020818303038152906040528051906020012090509695505050505050565b7fb09aa5aeb3702cfd50b6b62bc4532604938f21248a27a1d5ca736082b6819cc1610a1d81610a18610fb9565b610fc1565b878790508a8a905014610a65576040517f08c379a0000000000000000000000000000000000000000000000000000000008152600401610a5c90612191565b60405180910390fd5b858590508a8a905014610aad576040517f08c379a0000000000000000000000000000000000000000000000000000000008152600401610aa490612191565b60405180910390fd5b6000610abf8b8b8b8b8b8b8b8b610c33565b9050610acb818461105e565b60005b8b8b9050811015610b905780827f4cf4410cc57040e44862ef0f45f3dd5a5e02db8eb8add648d4b0e236f1d07dca8e8e85818110610b0f57610b0e6121b1565b5b9050602002016020810190610b2491906121e0565b8d8d86818110610b3757610b366121b1565b5b905060200201358c8c87818110610b5157610b506121b1565b5b9050602002810190610b63919061221c565b8c8b604051610b7796959493929190611f09565b60405180910390a380610b89906122ae565b9050610ace565b505050505050505050505050565b7fb09aa5aeb3702cfd50b6b62bc4532604938f21248a27a1d5ca736082b6819cc181565b600080600084815260200190815260200160002060000160008373ffffffffffffffffffffffffffffffffffffffff1673ffffffffffffffffffffffffffffffffffffffff16815260200190815260200160002060009054906101000a900460ff16905092915050565b6000801b81565b60008888888888888888604051602001610c54989796959493929190612590565b60405160208183030381529060405280519060200120905098975050505050505050565b7fb09aa5aeb3702cfd50b6b62bc4532604938f21248a27a1d5ca736082b6819cc1610caa81610ca5610fb9565b610fc1565b610cb3826108e4565b610cf2576040517f08c379a0000000000000000000000000000000000000000000000000000000008152600401610ce990612670565b60405180910390fd5b6001600083815260200190815260200160002060009055817fbaa1eb22f2a492ba1a5fea61b8df4d27c6c8b5f3971e63bb58fa14ff72eedb7060405160405180910390a25050565b600060016000838152602001908152602001600020549050919050565b610d60826107f0565b610d7181610d6c610fb9565b610fc1565b610d7b838361145e565b505050565b7fd8aa0f3194971a2a116679f7c2090f6939c8d4e01a2a8d7e41d55e5351469e63610dac816000610bc2565b610dc257610dc181610dbc610fb9565b610fc1565b5b868690508989905014610e0a576040517f08c379a0000000000000000000000000000000000000000000000000000000008152600401610e0190612191565b60405180910390fd5b848490508989905014610e52576040517f08c379a0000000000000000000000000000000000000000000000000000000008152600401610e4990612191565b60405180910390fd5b6000610e648a8a8a8a8a8a8a8a610c33565b9050610e708185611182565b60005b8a8a9050811015610f0057610eef82828d8d85818110610e9657610e956121b1565b5b9050602002016020810190610eab91906121e0565b8c8c86818110610ebe57610ebd6121b1565b5b905060200201358b8b87818110610ed857610ed76121b1565b5b9050602002810190610eea919061221c565b611223565b80610ef9906122ae565b9050610e73565b50610f0a8161131b565b50505050505050505050565b6000600254905090565b610fb681604051602401610f349190612707565b6040516020818303038152906040527f41304fac000000000000000000000000000000000000000000000000000000007bffffffffffffffffffffffffffffffffffffffffffffffffffffffff19166020820180517bffffffffffffffffffffffffffffffffffffffffffffffffffffffff838183161783525050505061153f565b50565b600033905090565b610fcb8282610bc2565b61105a57610ff08173ffffffffffffffffffffffffffffffffffffffff166014611568565b610ffe8360001c6020611568565b60405160200161100f9291906127fd565b6040516020818303038152906040526040517f08c379a00000000000000000000000000000000000000000000000000000000081526004016110519190612707565b60405180910390fd5b5050565b6110678261084d565b156110a7576040517f08c379a000000000000000000000000000000000000000000000000000000000815260040161109e906128a9565b60405180910390fd5b6110af610f16565b8110156110f1576040517f08c379a00000000000000000000000000000000000000000000000000000000081526004016110e89061293b565b60405180910390fd5b80426110fd919061295b565b60016000848152602001908152602001600020819055505050565b60007f01ffc9a7000000000000000000000000000000000000000000000000000000007bffffffffffffffffffffffffffffffffffffffffffffffffffffffff1916827bffffffffffffffffffffffffffffffffffffffffffffffffffffffff1916149050919050565b61118b826107ca565b6111ca576040517f08c379a00000000000000000000000000000000000000000000000000000000081526004016111c190612a23565b60405180910390fd5b6000801b8114806111e057506111df8161080f565b5b61121f576040517f08c379a000000000000000000000000000000000000000000000000000000000815260040161121690612ab5565b60405180910390fd5b5050565b60008473ffffffffffffffffffffffffffffffffffffffff1684848460405161124d929190612b05565b60006040518083038185875af1925050503d806000811461128a576040519150601f19603f3d011682016040523d82523d6000602084013e61128f565b606091505b50509050806112d3576040517f08c379a00000000000000000000000000000000000000000000000000000000081526004016112ca90612b90565b60405180910390fd5b85877fc2617efa69bab66782fa219543714338489c4e9e178271560a91b82c3f612b588787878760405161130a9493929190612bb0565b60405180910390a350505050505050565b611324816107ca565b611363576040517f08c379a000000000000000000000000000000000000000000000000000000000815260040161135a90612a23565b60405180910390fd5b60018060008381526020019081526020016000208190555050565b6113888282610bc2565b61145a57600160008084815260200190815260200160002060000160008373ffffffffffffffffffffffffffffffffffffffff1673ffffffffffffffffffffffffffffffffffffffff16815260200190815260200160002060006101000a81548160ff0219169083151502179055506113ff610fb9565b73ffffffffffffffffffffffffffffffffffffffff168173ffffffffffffffffffffffffffffffffffffffff16837f2f8788117e7eff1d82e926ec794901d17c78024a50270940304540a733656f0d60405160405180910390a45b5050565b6114688282610bc2565b1561153b57600080600084815260200190815260200160002060000160008373ffffffffffffffffffffffffffffffffffffffff1673ffffffffffffffffffffffffffffffffffffffff16815260200190815260200160002060006101000a81548160ff0219169083151502179055506114e0610fb9565b73ffffffffffffffffffffffffffffffffffffffff168173ffffffffffffffffffffffffffffffffffffffff16837ff6391f5c32d9c69d2a47ea670b442974b53935d1edc7fd64eb21e047a839171b60405160405180910390a45b5050565b60008151905060006a636f6e736f6c652e6c6f679050602083016000808483855afa5050505050565b60606000600283600261157b9190612bf0565b611585919061295b565b67ffffffffffffffff81111561159e5761159d612c4a565b5b6040519080825280601f01601f1916602001820160405280156115d05781602001600182028036833780820191505090505b5090507f300000000000000000000000000000000000000000000000000000000000000081600081518110611608576116076121b1565b5b60200101907effffffffffffffffffffffffffffffffffffffffffffffffffffffffffffff1916908160001a9053507f78000000000000000000000000000000000000000000000000000000000000008160018151811061166c5761166b6121b1565b5b60200101907effffffffffffffffffffffffffffffffffffffffffffffffffffffffffffff1916908160001a905350600060018460026116ac9190612bf0565b6116b6919061295b565b90505b6001811115611756577f3031323334353637383961626364656600000000000000000000000000000000600f8616601081106116f8576116f76121b1565b5b1a60f81b82828151811061170f5761170e6121b1565b5b60200101907effffffffffffffffffffffffffffffffffffffffffffffffffffffffffffff1916908160001a905350600485901c94508061174f90612c79565b90506116b9565b506000841461179a576040517f08c379a000000000000000000000000000000000000000000000000000000000815260040161179190612cef565b60405180910390fd5b8091505092915050565b600080fd5b600080fd5b600073ffffffffffffffffffffffffffffffffffffffff82169050919050565b60006117d9826117ae565b9050919050565b6117e9816117ce565b81146117f457600080fd5b50565b600081359050611806816117e0565b92915050565b6000819050919050565b61181f8161180c565b811461182a57600080fd5b50565b60008135905061183c81611816565b92915050565b600080fd5b600080fd5b600080fd5b60008083601f84011261186757611866611842565b5b8235905067ffffffffffffffff81111561188457611883611847565b5b6020830191508360018202830111156118a05761189f61184c565b5b9250929050565b6000819050919050565b6118ba816118a7565b81146118c557600080fd5b50565b6000813590506118d7816118b1565b92915050565b600080600080600080600060c0888a0312156118fc576118fb6117a4565b5b600061190a8a828b016117f7565b975050602061191b8a828b0161182d565b965050604088013567ffffffffffffffff81111561193c5761193b6117a9565b5b6119488a828b01611851565b9550955050606061195b8a828b016118c8565b935050608061196c8a828b016118c8565b92505060a061197d8a828b0161182d565b91505092959891949750929550565b60007fffffffff0000000000000000000000000000000000000000000000000000000082169050919050565b6119c18161198c565b81146119cc57600080fd5b50565b6000813590506119de816119b8565b92915050565b6000602082840312156119fa576119f96117a4565b5b6000611a08848285016119cf565b91505092915050565b60008115159050919050565b611a2681611a11565b82525050565b6000602082019050611a416000830184611a1d565b92915050565b611a50816118a7565b82525050565b6000602082019050611a6b6000830184611a47565b92915050565b60008060008060008060a08789031215611a8e57611a8d6117a4565b5b6000611a9c89828a016117f7565b9650506020611aad89828a0161182d565b955050604087013567ffffffffffffffff811115611ace57611acd6117a9565b5b611ada89828a01611851565b94509450506060611aed89828a016118c8565b9250506080611afe89828a016118c8565b9150509295509295509295565b600060208284031215611b2157611b206117a4565b5b6000611b2f848285016118c8565b91505092915050565b60008060408385031215611b4f57611b4e6117a4565b5b6000611b5d858286016118c8565b9250506020611b6e858286016117f7565b9150509250929050565b600060208284031215611b8e57611b8d6117a4565b5b6000611b9c8482850161182d565b91505092915050565b60008083601f840112611bbb57611bba611842565b5b8235905067ffffffffffffffff811115611bd857611bd7611847565b5b602083019150836020820283011115611bf457611bf361184c565b5b9250929050565b60008083601f840112611c1157611c10611842565b5b8235905067ffffffffffffffff811115611c2e57611c2d611847565b5b602083019150836020820283011115611c4a57611c4961184c565b5b9250929050565b60008083601f840112611c6757611c66611842565b5b8235905067ffffffffffffffff811115611c8457611c83611847565b5b602083019150836020820283011115611ca057611c9f61184c565b5b9250929050565b600080600080600080600080600060c08a8c031215611cc957611cc86117a4565b5b60008a013567ffffffffffffffff811115611ce757611ce66117a9565b5b611cf38c828d01611ba5565b995099505060208a013567ffffffffffffffff811115611d1657611d156117a9565b5b611d228c828d01611bfb565b975097505060408a013567ffffffffffffffff811115611d4557611d446117a9565b5b611d518c828d01611c51565b95509550506060611d648c828d016118c8565b9350506080611d758c828d016118c8565b92505060a0611d868c828d0161182d565b9150509295985092959850929598565b60008060008060008060008060a0898b031215611db657611db56117a4565b5b600089013567ffffffffffffffff811115611dd457611dd36117a9565b5b611de08b828c01611ba5565b9850985050602089013567ffffffffffffffff811115611e0357611e026117a9565b5b611e0f8b828c01611bfb565b9650965050604089013567ffffffffffffffff811115611e3257611e316117a9565b5b611e3e8b828c01611c51565b94509450506060611e518b828c016118c8565b9250506080611e628b828c016118c8565b9150509295985092959890939650565b611e7b8161180c565b82525050565b6000602082019050611e966000830184611e72565b92915050565b611ea5816117ce565b82525050565b600082825260208201905092915050565b82818337600083830152505050565b6000601f19601f8301169050919050565b6000611ee88385611eab565b9350611ef5838584611ebc565b611efe83611ecb565b840190509392505050565b600060a082019050611f1e6000830189611e9c565b611f2b6020830188611e72565b8181036040830152611f3e818688611edc565b9050611f4d6060830185611a47565b611f5a6080830184611e72565b979650505050505050565b600082825260208201905092915050565b7f416363657373436f6e74726f6c3a2063616e206f6e6c792072656e6f756e636560008201527f20726f6c657320666f722073656c660000000000000000000000000000000000602082015250565b6000611fd2602f83611f65565b9150611fdd82611f76565b604082019050919050565b6000602082019050818103600083015261200181611fc5565b9050919050565b7f54696d656c6f636b436f6e74726f6c6c65723a2063616c6c6572206d7573742060008201527f62652074696d656c6f636b000000000000000000000000000000000000000000602082015250565b6000612064602b83611f65565b915061206f82612008565b604082019050919050565b6000602082019050818103600083015261209381612057565b9050919050565b60006040820190506120af6000830185611e72565b6120bc6020830184611e72565b9392505050565b600060a0820190506120d86000830189611e9c565b6120e56020830188611e72565b81810360408301526120f8818688611edc565b90506121076060830185611a47565b6121146080830184611a47565b979650505050505050565b7f54696d656c6f636b436f6e74726f6c6c65723a206c656e677468206d69736d6160008201527f7463680000000000000000000000000000000000000000000000000000000000602082015250565b600061217b602383611f65565b91506121868261211f565b604082019050919050565b600060208201905081810360008301526121aa8161216e565b9050919050565b7f4e487b7100000000000000000000000000000000000000000000000000000000600052603260045260246000fd5b6000602082840312156121f6576121f56117a4565b5b6000612204848285016117f7565b91505092915050565b600080fd5b600080fd5b600080fd5b600080833560016020038436030381126122395761223861220d565b5b80840192508235915067ffffffffffffffff82111561225b5761225a612212565b5b60208301925060018202360383131561227757612276612217565b5b509250929050565b7f4e487b7100000000000000000000000000000000000000000000000000000000600052601160045260246000fd5b60006122b98261180c565b91507fffffffffffffffffffffffffffffffffffffffffffffffffffffffffffffffff8214156122ec576122eb61227f565b5b600182019050919050565b600082825260208201905092915050565b6000819050919050565b61231b816117ce565b82525050565b600061232d8383612312565b60208301905092915050565b600061234860208401846117f7565b905092915050565b6000602082019050919050565b600061236983856122f7565b935061237482612308565b8060005b858110156123ad5761238a8284612339565b6123948882612321565b975061239f83612350565b925050600181019050612378565b5085925050509392505050565b600082825260208201905092915050565b600080fd5b60006123dc83856123ba565b93507f07ffffffffffffffffffffffffffffffffffffffffffffffffffffffffffffff83111561240f5761240e6123cb565b5b602083029250612420838584611ebc565b82840190509392505050565b600082825260208201905092915050565b6000819050919050565b600082825260208201905092915050565b60006124648385612447565b9350612471838584611ebc565b61247a83611ecb565b840190509392505050565b6000612492848484612458565b90509392505050565b600080fd5b600080fd5b600080fd5b600080833560016020038436030381126124c7576124c66124a5565b5b83810192508235915060208301925067ffffffffffffffff8211156124ef576124ee61249b565b5b600182023603841315612505576125046124a0565b5b509250929050565b6000602082019050919050565b6000612526838561242c565b9350836020840285016125388461243d565b8060005b8781101561257e57848403895261255382846124aa565b61255e868284612485565b95506125698461250d565b935060208b019a50505060018101905061253c565b50829750879450505050509392505050565b600060a08201905081810360008301526125ab818a8c61235d565b905081810360208301526125c081888a6123d0565b905081810360408301526125d581868861251a565b90506125e46060830185611a47565b6125f16080830184611a47565b9998505050505050505050565b7f54696d656c6f636b436f6e74726f6c6c65723a206f7065726174696f6e20636160008201527f6e6e6f742062652063616e63656c6c6564000000000000000000000000000000602082015250565b600061265a603183611f65565b9150612665826125fe565b604082019050919050565b600060208201905081810360008301526126898161264d565b9050919050565b600081519050919050565b60005b838110156126b957808201518184015260208101905061269e565b838111156126c8576000848401525b50505050565b60006126d982612690565b6126e38185611f65565b93506126f381856020860161269b565b6126fc81611ecb565b840191505092915050565b6000602082019050818103600083015261272181846126ce565b905092915050565b600081905092915050565b7f416363657373436f6e74726f6c3a206163636f756e7420000000000000000000600082015250565b600061276a601783612729565b915061277582612734565b601782019050919050565b600061278b82612690565b6127958185612729565b93506127a581856020860161269b565b80840191505092915050565b7f206973206d697373696e6720726f6c6520000000000000000000000000000000600082015250565b60006127e7601183612729565b91506127f2826127b1565b601182019050919050565b60006128088261275d565b91506128148285612780565b915061281f826127da565b915061282b8284612780565b91508190509392505050565b7f54696d656c6f636b436f6e74726f6c6c65723a206f7065726174696f6e20616c60008201527f7265616479207363686564756c65640000000000000000000000000000000000602082015250565b6000612893602f83611f65565b915061289e82612837565b604082019050919050565b600060208201905081810360008301526128c281612886565b9050919050565b7f54696d656c6f636b436f6e74726f6c6c65723a20696e73756666696369656e7460008201527f2064656c61790000000000000000000000000000000000000000000000000000602082015250565b6000612925602683611f65565b9150612930826128c9565b604082019050919050565b6000602082019050818103600083015261295481612918565b9050919050565b60006129668261180c565b91506129718361180c565b9250827fffffffffffffffffffffffffffffffffffffffffffffffffffffffffffffffff038211156129a6576129a561227f565b5b828201905092915050565b7f54696d656c6f636b436f6e74726f6c6c65723a206f7065726174696f6e20697360008201527f206e6f7420726561647900000000000000000000000000000000000000000000602082015250565b6000612a0d602a83611f65565b9150612a18826129b1565b604082019050919050565b60006020820190508181036000830152612a3c81612a00565b9050919050565b7f54696d656c6f636b436f6e74726f6c6c65723a206d697373696e67206465706560008201527f6e64656e63790000000000000000000000000000000000000000000000000000602082015250565b6000612a9f602683611f65565b9150612aaa82612a43565b604082019050919050565b60006020820190508181036000830152612ace81612a92565b9050919050565b600081905092915050565b6000612aec8385612ad5565b9350612af9838584611ebc565b82840190509392505050565b6000612b12828486612ae0565b91508190509392505050565b7f54696d656c6f636b436f6e74726f6c6c65723a20756e6465726c79696e67207460008201527f72616e73616374696f6e20726576657274656400000000000000000000000000602082015250565b6000612b7a603383611f65565b9150612b8582612b1e565b604082019050919050565b60006020820190508181036000830152612ba981612b6d565b9050919050565b6000606082019050612bc56000830187611e9c565b612bd26020830186611e72565b8181036040830152612be5818486611edc565b905095945050505050565b6000612bfb8261180c565b9150612c068361180c565b9250817fffffffffffffffffffffffffffffffffffffffffffffffffffffffffffffffff0483118215151615612c3f57612c3e61227f565b5b828202905092915050565b7f4e487b7100000000000000000000000000000000000000000000000000000000600052604160045260246000fd5b6000612c848261180c565b91506000821415612c9857612c9761227f565b5b600182039050919050565b7f537472696e67733a20686578206c656e67746820696e73756666696369656e74600082015250565b6000612cd9602083611f65565b9150612ce482612ca3565b602082019050919050565b60006020820190508181036000830152612d0881612ccc565b905091905056fea26469706673582212202f45cfde0db86aaf4602c22863a20a229f36b346ea2e26348bc6ba88e3d9934564736f6c63430008090033a2646970667358221220c18f5af744b4a99e3d8a97095451ca380f3d065a2dd103c9cd0dae46951202c464736f6c63430008090033",
  "linkReferences": {},
  "deployedLinkReferences": {}
}